:100000000C945D0D0C94850D0C94850D0C94850D50
:100010000C94850D0C94850D0C94850D0C94850D18
:100020000C94850D0C94850D0C948F110C94FE117D
:100030000C94850D0C94850D0C94850D0C94850DF8
:100040000C94850D0C94850D0C94850D0C94850DE8
:100050000C94850D0C94850D0C94850D0C94301426
:100060000C94850D0C94850D0C94850D0C94850DC8
:100070000C94850D0C94850D0C94850D0C94850DB8
:100080000C94850D0C94850D0C94850D0C94850DA8
:100090000C94850D0C94850D0C94850D0C94850D98
:1000A0000C94850D0C94850D0C94850D870282406F
:1000B000000000032283760362031607236304848F
:1000C0003747570087058185046162646504408273
:1000D0007406000122020316042304843701718789
:1000E0002273060A600121510252034304440411A1
:1000F00005071700024187022565041516475501BB
:1001000061872014720142091121516171622363D8
:100110005600025586040333443605346676078755
:100120000087205654034050600580132324170194
:10013000510521324344360245270475663787004E
:1001400087701186036122620001850283760003B5
:10015000163647017187802603018300010202736E
:1001600084062232422535450654647427374701F8
:10017000118740557402751701470173016302111D
:100180001503365607024124878074050157000283
:1001900004770281860243730315264700875105C1
:1001A00001000102000352442601170316365701CD
:1001B00032872262150002631702611400041123C2
:1001C00024250326072700874282160003071727E6
:1001D00001150006433454256576064435552666D8
:1001E00077008765140707818283848586870111DC
:1001F00002041704714272360002464701018772F9
:10020000210701310A114151617152730414170120
:1002100025016704133365360322558501018741A3
:100220003757100242820333538304448405850602
:1002300086078700033656470232340252540000C4
:100240008743424702444502345401460273240264
:1002500013640227670236568700752607010203DA
:10026000040506070547576777870264740155023E
:1002700011170246560181872135410312132308C5
:100280000717273747577787000003223334016762
:10029000008761347107422324446446660162008A
:1002A000025375000155008700158700000266772C
:1002B0000122020306011700872565010751048406
:1002C000058506070C21316102126263142434543F
:1002D0006400000226560274450087001581000361
:1002E0007072730000040103140604255637870159
:1002F0004587861601000602275767778701260083
:100300000215250407173747012287001487053394
:1003100034353637000217770003030646025627A6
:100320000166874044420141052060374757014339
:10033000000002276702315187404487023454018C
:100340007602847701350153033324460342645512
:100350008710017700010408071727374757678779
:100360000372747603111315000087203676040497
:1003700005060701350175000000061424344454B5
:100380006487006602000903133343536373341513
:100390000470577787028547000423250767008785
:1003A000000357000601112131517100017301361C
:1003B00004468647670087006141000721236314D4
:1003C00024546402375700040103340602764700C0
:1003D00087204607062233445566770217470000F8
:1003E00000000223348700026501670201710003E7
:1003F0007426760311412706436425061787008774
:1004000020168100058217273747000123012201AA
:10041000570124870065120503040506070F011123
:10042000213171621374553637576777870001643D
:100430000141014701818700118600046306778727
:100440000507374757670113013302172700870055
:10045000428700000807172737475767770183024D
:100460000105000087864301014003354555000220
:10047000718701140284070085708185025352063A
:10048000142454647484023444014201620104005F
:100490008500428105102030405000061525355555
:1004A0006575000114030545850084044384042414
:1004B0002322210534445473740001110131016475
:1004C0000101D5F08D14A1C881CFD9F1AF2000F082
:1004D000F89C8E8783878E9CF8F00000FEFF030354
:1004E000030303070EFCF80000FEFF0303030303EE
:1004F000070EFCF80000FFFF00000000000000FFF6
:10050000FF0000FEFF8383838383C7EE7C380000F7
:10051000F8FC0E07030303070EFCF800003F7FE022
:10052000C08080C0E07F3FFFFF01010101010101A8
:10053000FFFF0000FFFF0C0C0C0C1C3E77E3C1001A
:10054000007FFFC0C0C0C0C0E0703F1F00001F3F61
:1005500070E0C0C0C0E0703F1F00007FFFC1C1C19C
:10056000C1C1E3773E1C00001F3F70E0C0C0C0E087
:10057000703F1F000000000001FFFF01000000802D
:100580004000F040F000F0501000F0000000F0508B
:100590007000000018A48232D2E4D23282A4180083
:1005A0000000F010D00000F050100010F01000001B
:1005B000007CC63AF2ECD0A0A04040408000000091
:1005C000F090F000F060C0F000F010E000000000DB
:1005D000F0507000F000F00010F01000008040A01B
:1005E000269AC2F2C418608000000000F00000F0FB
:1005F00060C0F0000000FC860A6A2A8ACA0A86FCEB
:1006000000000100010001010100010101000100E1
:100610000000000003040C0A8884888A8C8483000C
:1006200000000101010000010101000001000000C3
:100630000000010306050D0B0B0B0D060300000067
:1006400001000100010000010001010000000000A4
:100650000100000001010100000100000003040985
:100660000B0B0904090B0A08070000000100000138
:1006700000000100000000070C0B0A08080C07002E
:10068000000000000000000000000000000000006A
:1006900000000000F80848E80F00040604000FE816
:1006A0004808F800004040F0E0400000F010100062
:1006B000F010F000F02040F00010F01000F090700A
:1006C00000F010F000F000000000000018A48232DA
:1006D000D2E4D23282A418000000008E301C308E8A
:1006E00000BEA2BE00BE0408BE00BE0814A200BE2A
:1006F000AAAA008638860000000000000000000062
:1007000000000000000000000000000000000000E9
:1007100000000000030202023E20242C24203E029E
:1007200002020300000000010000000001010100BE
:1007300001010100010000010000010000010001B1
:1007400000018181808181818080800003040C0A06
:100750008884888A8C8483808000000F0102818FC6
:10076000808F888F808F81020F000F028588808F95
:100770008A8A80818E0100000000000000000000D5
:100780000000000000000000000000000000000069
:10079000000000000000007C827D7D557D29827C68
:1007A000000000000010107C381000007C081008C9
:1007B0007C007C447C001C601C007C5444000000D5
:1007C00000FF41023178FD30310055FF000000FF8D
:1007D00041023130FD78310055FF000000FF411229
:1007E000197C7D18110055FF000000FF4112317C7B
:1007F0007D30110055FF00000000000000000000E7
:100800000000E0A0E000E0A0E000E0A02000E0A008
:10081000A000E0A0A00000E01009C969C90910E02B
:1008200000000000008080E0C0800000E020200088
:10083000E020E000E0408040E000E0A02000E0A0F8
:10084000E001E322E202020203E2438140E000E130
:1008500023E202E222C203E2A32100000001E3221C
:10086000E202E24283E20301C03000E123E202E25D
:10087000A22203E2A321000000000000000000000B
:100880000000030000000301020003020200020254
:100890000300020203000003844B4B494B4B8403CB
:1008A000000000000000000301000000030202003D
:1008B0000301030003000000030003020200030120
:1008C0000200030103000000000300000003000316
:1008D0000203000302010003020200000000030201
:1008E00003000300000300060100000302030003ED
:1008F00000000003C06020F07030E0E0C0000000A5
:100900000000000000003E083E003E223E003E2067
:1009100020003E221C00001F20585E4B5E58201F06
:10092000000000000004041F0E0400001F0D17004B
:100930001F15110017151D00011F01001F091F00C1
:100940001F0D1700011F01000000001F1010001FE5
:10095000151100071807001F1511001F10100000C7
:100960000000000000000000000000000000000087
:100970000000001F3F3C1D3F3C3D1F3F3F1F00004C
:1009800000804000000000000000000000000000A7
:100990000000000000000000000000000000000057
:1009A0000000000000000000000000000000000047
:1009B000000000000000003E2222003E122E003EF9
:1009C0002A22003E221C003E00023E02002E2A3A4D
:1009D0000000140000000000000000000000000003
:1009E0000000000000000000000000000000000007
:1009F00000000000000000000000000000000000F7
:100A000000000000000000000000000000000000E6
:100A100000000000000000000000000000000000D6
:100A20000000007C4444007C447C007C4438007C12
:100A30005444000000007C247C007C18307C007C46
:100A40004438000000007C446C007C245C007C2462
:100A50007C007C141C007C107C007C007C444400E6
:100A60005C54740000000000000000000000000062
:100A70000000000000000000000000000000000076
:100A80000000000000000000000000000000000066
:100A90000000000000000000000000000000000056
:100AA0000000000000000000000000000000000046
:100AB0000000000000000000000000000000003EF8
:100AC0002A2E38000E380E00000000000000000042
:100AD0000000000000000000000000000000000016
:100AE0000000000000000000000000000000000006
:100AF00000000000000000000000000000000000F6
:100B000000000000000000000000000000000000E5
:100B100000000000000000000000000000000000D5
:100B200000000000000000000000000000000000C5
:100B3000001F060C061F001F0D17001000001F15D8
:100B4000171C001F1010001F001F02041F001F04AD
:100B50001B00071C07000000000000000000000050
:100B60000000000000000000000000000000000085
:100B70000000000000000000000000000000000075
:100B80000000000000000000000000000000000065
:100B90000000000000000000000000000000000055
:100BA0000000000000000000B8A8E800F8283800A5
:100BB000F8A88800F8888800F800F848F800F8805D
:100BC000800000000008F80800F820F800F848F855
:100BD00000F81020F800F820D800B8A8E80000506D
:100BE0000000000000000000000000000000000005
:100BF00000000000000000000000000000000000F5
:100C000000000000000000000000000000000000E4
:100C1000000000000000F040B000F05010007080B4
:100C20007000F000F02040F000000000F05070C0B4
:100C300000F090F00010F01000F05010007050D054
:100C400000000000F0501000F010F000F0D0700034
:100C5000000000F050F000F0D07000F010E000F064
:100C600000F000F05070C000F010F00070C0700094
:100C70000000000000000000000000000000000074
:100C80000000000000000000000000000000000064
:100C9000000008F80800F900F9A8B9E101F8A889EE
:100CA00000F869B801F800F980F800B8A9E9010175
:100CB0000001F8A9B8E001F848B901F988F901394B
:100CC000C070C03801F81020F901010001F82908AE
:100CD00000F888F900F968B900010001F928F80165
:100CE000F969B801F9897100F9A98900F81120F8AA
:100CF00000B8A8E8000000000000000000000000AC
:100D000000000000000000000000000000000000E3
:100D1000007C247C007C18307C007C44380000007F
:100D200000047C04007C107C007C54440000000023
:100D30007C147C007C345C007C4438007C407C006B
:100D40007C545C70007C447C001C701C0000000023
:100D50007C4444007C447C007C1830187C007C1867
:100D600030187C007C407C007C08107C007C0004F7
:100D70007C04001C701C000000000000000000004B
:100D800000000070181E3F3F3F3FFFFFFFFFFFFFC7
:100D90003F3F3F3F1E0000FEFFFFFFFE0000000040
:100DA00000FEFFFFFFFE0000FCFEFEFFFFFF7F3F97
:100DB0003F3F3F3F3F3F1E0000000000000000009B
:100DC00000000000FCFEFEFFFFFF7F3F3F3F3F3F74
:100DD0003F3F1E0000FEFFFFFFFEF8E0800000FE28
:100DE000FFFFFFFE0000FEFFFFFFFF3F3F3F3F7F93
:100DF000FFFFFEFEFC0000000000FFFFFFFFFFFF03
:100E000000000000000000FFFFFFFFFF7E7E7E7EEF
:100E10007EFFFFFFFFFF0000FFFFFFFFFFFF3C3CE7
:100E20003C3C3C3C3C18000000000000000000007E
:100E300000000000FFFFFFFFFFFF3C3C3C3C3C3C50
:100E40003C18000000FFFFFFFFFF7FFFFFFEF8FFE1
:100E5000FFFFFFFF0000FFFFFFFFFF00000000009B
:100E6000FFFFFFFFFF00000000007FFFFFFFFF7F8D
:100E7000000000000000007FFFFFFF7F0000000077
:100E8000007FFFFFFF7F00000F3F7F7FFFFFFEFC23
:100E9000FCFCFCFCFCFC78000000000000000000F2
:100EA000000000000F3F7F7FFFFFFEFCFCFCFCFC0E
:100EB000FCFC7800007FFFFFFF7F0001071F7FFF22
:100EC000FFFFFF7F00007FFFFFFFFFFCFCFCFCFE3D
:100ED000FF7F7F3F0F080800000018183C3C7E7E13
:100EE000FF007E0000000000000000007E7EFF3C4E
:100EF0007E183C0018000000101038183C1C3E1CE6
:100F00003E183C103800100008081C183C387C388B
:100F10007C183C081C00080C0C18BCA4FE82FE3295
:100F2000FED2FEE4FED2FE32FE82FEA4FE18BC001B
:100F3000000307040F0C0F0A0F080F040F080F0A15
:100F40000F0C0F040F030700001CBEA2FF81FF1946
:100F5000FF69FF72FF69FF19FF81FFA2FF1CBE003E
:100F6000000307040F0C0F0A0F090F040F090F0AE3
:100F70000F0C0F040F0307000060F090FC6CFE6282
:100F8000FE1AFE02FE02FEAAFE12FE44FE38FE001B
:100F900000000F060F0C0F080F000F010F020F0AC1
:100FA0000F090F040F03070000307848FE36FFB129
:100FB000FF4DFF01FF81FF15FF49FF22FF1C3E008F
:100FC000000004040F0A0F080F050F010F040F049F
:100FD0000F080F0E0F000E000038FC44FE12FEAA90
:100FE000FE02FE02FE1AFE62FE6CFE90FC60F00045
:100FF000000307040F090F0A0F020F010F000F086B
:101000000F0C0F060F000F00001C3E22FF49FF15BA
:10101000FF81FF01FF4DFFB1FF36FF48FE30780032
:1010200000000E0E0F080F040F040F010F050F082C
:101030000F0A0F040F000400009CBE62FF01FF01B5
:10104000FF01FF01FF01FF01FF81FFA2FF1CBE00A6
:1010500000010302070607040F040F050F080F081D
:101060000F0C0F040F0307000000809CBEA2FF01BD
:10107000FF01FF81FF01FF01FF01FF41FFA2FF1CF4
:101080003E0307040F0C0F080F080F040F040F0492
:101090000F06070207010300009CFE22FF41FF012B
:1010A000FF01FF81FF01FF01FF41FF22FF9CFE00C6
:1010B000000107060F080F080F0C0F040F0C0F0894
:1010C0000F080F060F0107000080DEDEFFBFFF37AD
:1010D000FF93FF3FFF93FF37FF9EFFC0FE60F0408E
:1010E000E00005040F0D0F070F020F0D0F050F0B8A
:1010F0000F020F060F0D0F040F0C0C00FCFCFC84FC
:10110000FC08F868F828F888F8C8F808F884FCFCA7
:10111000FC00FC000F000F070F0C0F0B0F0A0F084D
:101120000F080F0C0F070F000F000F0C0C7C7CC674
:10113000FE3AFEF2FEECFCD0F0A0E0A0E040C040A1
:10114000C040C08080000001010303060705070DB1
:101150000F0B0F0B0F0B0F0D0F06070303C0C02063
:10116000E0D0F093F3CDFFE1FF79FFE2FE8CFC309D
:10117000F040C08080010102030407050705070451
:10118000070203040705070507040703030000031C
:101190000506080A0B0B0C0C0D0D0D0C0C0B0B0AA5
:1011A00008060503000C0C00000000000000000011
:1011B0000000000000000000000000000000007CB3
:1011C000C63AF2ECD0A0A0404040800001030605E2
:1011D0000D0B0B0B0D060300FC860A6A2A8ACA0A4D
:1011E00086FC000000070C0B0A08080C070000B67C
:1011F0006DDB9292929292DB6DB6000D0B060404A9
:10120000040404060B0D008C5A5E568E2A2E8E1A8C
:101210005ECC0006080908080A080A080D07000045
:10122000E038E080E0388E38E0000006050C0A095E
:10123000080C0504050702FC060AC6E2F6C2C6024F
:1012400056FC00070D0808090B080C080D0700FCE8
:10125000060AC6C2F6E2C60256FC00070D080808D8
:101260000B090C080D0700FC064A66F2F6624602FE
:1012700056FC00070D08080909080C080D0700FCBA
:10128000064AC6F2F6C2460256FC00070D080809D7
:1012900009080C080D070000000000000000000015
:1012A00000000000000000000000000C0E0E060010
:1012B0000000000000000000000000020004060220
:1012C0000004060200040600000000000000000008
:1012D0000000000E0E0C00000000000000000000E6
:1012E0000000000000000033990000000000000032
:1012F000000000030900000099CC0000000000007D
:1013000000000000090C00000000000000000000C8
:1013100000000000000000030707060000000000B6
:1013200000000000000000020004060200040602A3
:10133000000406000000000000000000000000079C
:101340000703000000000000000000000000000093
:1013500000000000000000AA049004780464044E19
:101360000436041304FF03E503D003B6039F03818F
:10137000036A035003380322030A03F102DA02B8B6
:1013800002A70291027702580240021E02FE01E209
:1013900001C701B1019D0188017101550140012181
:1013A000010101DF00C400AC000F18FCFEFEFFFFCE
:1013B0007F3F3F3F7FFFFFFEFEFCFFFFFFFFFF0081
:1013C00000000000FFFFFFFFFF0F3F7F7FFFFEFCDD
:1013D000FCFCFEFF7F7F3F0F00001C3E3FFFFFFF36
:1013E000FFFE00000000000000000000FFFFFFFF04
:1013F000FF000000000078FCFCFCFCFFFFFFFFFF8B
:10140000FCFCFCFC787CFEFEFFFF7F3F3F3FFFFFC4
:10141000FFFEFEFC000080C0E0F0F8FCFE7F3F1FF6
:101420000F07017EFFFFFFFFFFFFFDFCFCFCFCFC44
:10143000FC787CFEFEFFFF7F3F3F3F7FFFFFFEFE0D
:10144000FC0000000000000C0C1E3FFFFFFFF3C07B
:101450000E3F7F7FFFFEFCFCFCFEFF7F7F3F0FFE09
:10146000FFFFFFFE00000000FEFFFFFFFE003F7FCA
:101470007F7F7F7C7C7C7CFFFFFFFFFF7C00000088
:101480000000000000007FFFFFFF7F00FEFFFFFF66
:10149000FF3F3F3F3F3F3F3F3F3F1E070F0F1F1F95
:1014A0001E1E1E1E3EFCFCF8F0800E3F7F7FFFFEDE
:1014B000FCFCFCFEFF7F7F3F0FF8FEFEFFFF3F1F9F
:1014C0001F1F1F3F7F7E7E38FFFFFFFFFF3E1E1E58
:1014D0001E3EFCFCF8F0800F3F7F7FFFFEFCFCFC13
:1014E000FEFF7F7F3F0F3C7E7E7F7F7F3F3FBFFFC2
:1014F000FFFFFEFE7C000000000000E0FCFFFFFF9D
:10150000FF1F030000000070FCFFFFFF7F1F0700AC
:10151000000000C0F8FCFEFE1F0F0F0F1FFEFEFCB8
:10152000F8C081E7FFFFFF3F1E1E1E3FFFFFFFE7E2
:10153000810F3F7F7FFFFEFCFCFCFEFF7F7F3F0FA4
:10154000F0FCFEFEFF3F1F1F1F3FFFFEFEFCF003EF
:101550000F1F1F3F3E3C3C3C7EFFFFFFFFFF1C7EFA
:101560007EFEFCF8F8F8F8FCFFFF7F7F1F4918FEAD
:10157000FFFFFFFFFE0000000000000000FCFEFE79
:10158000FFFF7F3F3F3F3F3F1E001EFFFFFFFFFE6D
:10159000F00000000000F0FEFFFFFFFF1E00FCFE59
:1015A000FEFFFF7F3F3F3F3F3F1E0000FEFFFFFF6C
:1015B000FFFE000000000000FFFFFFFFFFFF000034
:1015C000000000000000FFFFFFFFFF3C3C3C3C3CF4
:1015D0001800000000073FFFFFFFFFF080F0FFFF53
:1015E000FFFF3F07000000FFFFFFFFFF3C3C3C3CCC
:1015F0003C18000000FFFFFFFFFFFF00000000009D
:10160000000F3F7F7FFFFFFEFCFCFCFC7800000F1B
:101610003F7F7FFFFEFCFCFCFCFC7800000000002C
:1016200001071F7FFFFFFF7F1F0701000000000071
:101630000F3F7F7FFFFEFCFCFCFCFC7800000F3FAF
:101640007F7FFFFFFEFCFCFCFC7880403E9F070391
:10165000030100020301000203010002030100E292
:10166000F3F1F0F2F3F1F0F2F3E1E0C2030100E292
:10167000F3F1F0E203010002E3F1F0F2E30100E232
:10168000F3F1F0F2F3F1F0F2F3F1F0F2E30100E242
:10169000F3F1F0F2F3F1F0F2F3F1F0F2E30100E232
:1016A000F3F1F0F2E30100020301000203C1E0E202
:1016B000F3F1F0F2F3F1F0F2E301000203010002B2
:1016C000030100020301000203073F9E339900005B
:1016D000000000008080808000000000000000FF0B
:1016E000FFFFFFFFFFC0C0E1FFFFFFFFFF0000FFA4
:1016F000FFFFFFFF00000000FFFFFFFFFF000001F2
:10170000030383E3FBFFFFFFFF7F1F0701000001CF
:10171000030383E3FBFFFFFFFF7F1F07010000FFC1
:10172000FFFFFFFFFF0000000000000000FFFFFFC1
:10173000FFFFE7E3E3E3E3C3010000000000000074
:101740000080808080000000000033993399000001
:1017500000E0388FE100E0CF38E08000000000FFBB
:10176000FFFFFFFFFF070707070703030000C0DFB6
:10177000DFDFDFBF78F0F0F8FF3FDFDFDF0000E002
:10178000F83EDFDFDFBF7F37D1D030F0E00000C0B0
:10179000D8DE3FFFFFFF3FD7D1D0B07020C0C03FA1
:1017A000FFFFFF3FDFD8D030F0F0E000003FFFFF49
:1017B000FFFFF9F1F1F1F1F0E0000000000080E03E
:1017C00038CFE000E18F38E0000033993399000012
:1017D000003FE01FFFFEF9E7DFBC7BF6ECD8B0610D
:1017E00043C3830301000000000000000000FFFF6E
:1017F000C4C4FF7F3B0003E3FC7F3F313F7FFCE13C
:101800000300FFFF071F7EF8FFFF0003E0FC7F3FA0
:10181000313F7FFCE30300FFFF071F7EF8FFFF005F
:1018200001E1FC7F3F313F7FFCE30100000000014C
:1018300001030303030383C34160B0D8ECF67BBC10
:10184000DFE7F9FEFF1FE03F000033993399000006
:10185000000001071C336FDFBFBF7F7EFDFBF7F782
:10186000EFEEDDDDDBBAB6B4AC0898F000000000A6
:101870000000000000000000000000000000000068
:101880000000000000000000000000000000000058
:101890000000000000000000000000000000000048
:1018A00000000000000000000000000000F09808A8
:1018B000ACB4B6BADBDDDDEEEFF7F7FBFD7E7FBF44
:1018C000BFDF6F331C07010000003399339900001C
:1018D00000000000000000000001010302060605F0
:1018E00005050505050505060203010000000000C9
:1018F00000F0F818F8F818F8F000F0F818181800C8
:10190000000000F8F85878F0C000F8F80000000077
:10191000F8F800F8F81818F8F000F8F840E0B818EF
:10192000003878C0C07838000000000000000103D3
:101930000206050505050505050506060203010164
:1019400000000000000000000000339933990000FF
:101950000000A0080480E2B0E2800408A00000F0CB
:1019600040F000F0505000F0000000F05070000017
:1019700000030300000000030300030300000063F2
:101980007330B0F3E303E3F33130F1E30363733017
:10199000B3F3E003F3F0B0B3B33003030000030389
:1019A000000000030300A00804F0F250F2A00408B5
:1019B000A000007050D00010F01000F090F000F087
:1019C000D0700010F01000000000339973F9E0C0EF
:1019D000400080C2440189C0490184C2400080C1E6
:1019E000400180C1410180C1410180C1400080C0EF
:1019F000400080C0400080C0400080C0400080CCDB
:101A00004E0F8FCD4C0087CF4C0C8FC7400C8ECF24
:101A10004F0D8CC04D0D8DCD4F0780C0400080C054
:101A2000400080C0400080C2440189C1490084C296
:101A3000400080C1410180C0410080C1400180C19F
:101A4000400180C0410080C0C0E0F379080B000273
:101A50000202000009040000010202000005240047
:101A600010010524010101042402060524060001D9
:101A70000705810310004009040100020A0000006C
:101A8000070502024000000705830240000004032E
:101A9000090412010002EF020140412336800001D7
:101AA0000102030141726475696E6F204C4C430062
:101AB00041726475626F7900AD1411241FBECFEFBF
:101AC000DAE0DEBFCDBF11E0A0E0B1E0E0E1FAE393
:101AD00002C005900D92A632B107D9F726E0A6E222
:101AE000B1E001C01D92A43CB207E1F71DE0CDE5D5
:101AF000DDE004C02197FE010E94001DCC35D10716
:101B0000C9F70E94C2140C94061D0C9400006F9239
:101B10007F928F929F92AF92BF92CF92DF92EF927D
:101B2000FF920F931F93CF93DF93DC01FA0114917F
:101B3000319654913196C12FD0E0222309F1CC2463
:101B4000C394D12C852F877011F4D12CC12CE52E94
:101B5000E694E694E694EC0CFD2CF11CEC9EC0019E
:101B6000ED9E900DFC9E900D1124033011F4880F12
:101B7000991F289F7001299FF00C1124EE0DFF1D65
:101B80007D01EC0EFD1E1E141F040CF031C1A038A7
:101B9000B1050CF02DC1CB01850F911D181619064A
:101BA0000CF026C1603471050CF022C1309709F4A5
:101BB0001FC1362F3770CB0177FD079623E095952F
:101BC00087952A95E1F7282F77FF04C0332311F07A
:101BD0002FEF280F662777276A1B7B0BB7FD02C004
:101BE00070E060E090E89A1B40E8E416F1040CF421
:101BF000912F961BE22E022E000CFF08DE2CD094B3
:101C00002F3F0CF0D12C41E0852F877009F440E084
:101C1000B52EB694B694B6944B0DE40EF11C89E043
:101C2000E816F10414F048E0421BB42EBD182D0D47
:101C300040E8240370011124AE0DBF1DA60FB71F8D
:101C40001D9D600D711D1124AF01460F571FC32E3E
:101C5000032E000CDD08033009F47EC00A3F09F4AE
:101C600041C0023009F0C4C06FEF70E0032E02C023
:101C7000660F771F0A94E2F760957095972E8B2C6C
:101C8000820E281509F4B4C08D010C531D4FF12CA0
:101C9000E12CE91608F054C0FA01EE0DFF1DE491A5
:101CA000F0E03F010C2C02C0660C771C0A94E2F7AE
:101CB00027FD05C0F8018081862386298083332390
:101CC00059F027304CF45801F0E8AF0EB11CF50183
:101CD0008081892187298083FFEFEF1AFF0A0F5F38
:101CE0001F4FD7CFB20E2B1509F482C0BD016C5324
:101CF0007D4F10E000E0091748F5FA01E00FF11FF1
:101D0000E491F0E04F010C2C02C0880C991C0A945D
:101D1000E2F727FD04C0FB018081882980833323FB
:101D200051F0273044F47B01F0E8EF0EF11CF7018D
:101D30008081892980830F5F1F4F6F5F7F4FDBCFCB
:101D40002F5F4C0F5D1FA058BF4F9BCF2F5F4C0FD5
:101D50005D1FA058BF4FC7CFE92EF12CFA01E60F47
:101D6000F71FAC53BD4F60E870E06E197F09CE19C4
:101D7000DF098E01000F111F41E050E07A01032EB0
:101D800001C0EE0C0A94EAF7592F4B2D892E932EA1
:101D9000CF93DF93ED01EF96EF962296A590C59035
:101DA000992059F0AE9C5001CE9C600127302CF454
:101DB000F880D094FD20FB28F99222233AF0FC9081
:101DC000C094FC20FA28FD920C94E70E11965A95C7
:101DD00029F74A9551F0582D23951124E00FF11D54
:101DE000A60FB11DC60FD11DD9CFDF91CF91112400
:101DF000DF91CF911F910F91FF90EF90DF90CF90E7
:101E0000BF90AF909F908F907F906F900895E4EC7B
:101E1000F2E0A0E0B8E000800EBC8111012C119727
:101E2000A0FDFDCF0192B9F70DB40895FC0180919A
:101E3000C302882311F13FB7F89482E08093E90050
:101E40002091F200822F90E01816190614F481E018
:101E500090E0882339F0289844E64093C2024091EC
:101E6000F1004083222339F02091F200211103C0B8
:101E70002BE62093E8003FBF08958FEF9FEF089572
:101E80002FB7F89483E08093E9009091E800892FC0
:101E9000807295FF04C09091F20080E4891B2FBFEF
:101EA00008958091BA0281110DC082E08093B6023C
:101EB00084E08093B7021092B9021092B80281E0D8
:101EC0008093BA0286EB92E00895CF93DF931F923E
:101ED000CDB7DEB76983DC01ED91FC910280F3811F
:101EE000E02D41E050E0BE016F5F7F4F09950F90FC
:101EF000DF91CF91089583E08093E9008091F20013
:101F0000882319F08AE38093E80008950E94400F27
:101F100090E00895CF93DF931F92CDB7DEB7FC0119
:101F20008485958597FD08C02FEF3FEF358724877F
:101F30000F90DF91CF910895CE0101960E94160F68
:101F4000019719F4898190E0F3CF8FEF9FEFF0CFE5
:101F50000F931F93CF93DF931F92CDB7DEB78C0102
:101F6000FC018485958597FF0BC0CE0101960E94E8
:101F7000160F019771F4898190E0F80195878487A5
:101F8000F801848595850F90DF91CF911F910F9176
:101F900008958FEF9FEFF1CFFC018485958597FD24
:101FA0000BC09FB7F89482E08093E9008091F20023
:101FB0009FBF90E0019608959FB7F89482E08093C8
:101FC000E9008091F2009FBF90E008954091600287
:101FD0005091610220915E0230915F0242175307D7
:101FE000B4F49091E8009570E1F39091E80092FDCF
:101FF00019C08093F1008091600290916102019676
:102000008F739927892B19F48EEF8093E8008091C4
:102010006002909161020196909361028093600248
:1020200081E0089580E00895DF92EF92FF920F9390
:102030001F93CF93DF93D82E8A01EB017B01E40E2F
:10204000F51ECE15DF0559F0D7FE12C0FE018491B2
:102050000E94E60F21968111F4CF0FEF1FEFC80108
:10206000DF91CF911F910F91FF90EF90DF90089536
:102070008881EECF0F931F93CF93DF931F92CDB73D
:10208000DEB782E0898342E450E06CE47AE180E8E4
:102090000E9414100E94510FDC0112960D911C91A8
:1020A0000115110589F0D801ED91FC910280F381B1
:1020B000E02DBE016F5F7F4FC801099597FD04C0F9
:1020C000F80100851185ECCF89810F90DF91CF91C8
:1020D0001F910F910895615030F02091F100FC01A3
:1020E00020830196F8CF289884E68093C202089551
:1020F000FC010E940F11319728F068517C4F8F4FDF
:102100009F4FF9CFAB01FC010E940F1164177507B7
:102110008E079F07C8F308958F929F92AF92BF9248
:10212000CF92DF92EF92FF920F931F93CF93DF93A3
:102130006C017B018A0180910C01882309F45AC04B
:102140008091C302882309F455C08091650280FF05
:1021500005C08091E00082608093E000E801B12C2E
:102160008AEFA82E93E0892E2AE3922E209711F46D
:10217000BB20C9F10E94400F811108C0AA94AA2077
:10218000C9F181E090E00E947810F0CF8C171D0615
:1021900011F00CF08C2F9FB7F8948092E9002091F9
:1021A000E80025FD02C09FBFE1CF282F30E0C21B11
:1021B000D30BF701815020F041914093F100FACF09
:1021C000E20EF31EBB2021F09092E800B12CEBCF81
:1021D0008091E80085FDE7CF9092E800BB24B3949E
:1021E000209709F3F3CF5D9884E68093640210167C
:1021F00011063CF081E090E0F6019383828310E0C9
:1022000000E0C801DF91CF911F910F91FF90EF90F7
:10221000DF90CF90BF90AF909F908F900895A8E2ED
:10222000B1E02FB7F8947D918D919C9166B52FBF49
:10223000A89B05C06F3F18F47F5F8F4F9F4F22E030
:10224000660F771F881F991F2A95D1F708950F935E
:1022500003E00E94870D0F9108950F9302E00E9402
:10226000870D0F91089590E00C9478108FB18095B0
:10227000807F669B88601C9B8460089590914802D3
:10228000982329F490914902982381E009F480E091
:10229000089587FF0DC067FD36C0062E000C770B32
:1022A000809147018617170609F07CF58FE00895A5
:1022B000082E000C990B209146012817190609F0E9
:1022C0006CF467FD24C0062E000C770B809147014B
:1022D0008617170609F0ECF481E1089567FD1BC02D
:1022E00030914701462F062E000C550B341715066A
:1022F000A1F09CF06203F00111248B5B9E4FE80F6C
:10230000F91F838108958AE008958DE008958CE097
:1023100008958EE008958BE0089580E108951F925E
:102320000F920FB60F9211248F939F938091E1002B
:102330009091E100937F9093E10083FF0FC0109292
:10234000E90091E09093EB001092EC0092E39093FF
:10235000ED001092C30298E09093F00082FF22C03B
:1023600093E09093E9009091F200992319F09AE399
:102370009093E80090916402992341F09091640257
:10238000915090936402911101C05D9A9091C202A4
:10239000992341F09091C20291509093C202911101
:1023A00001C0289A84FF18C08091E2008E7E81606F
:1023B0008093E2008091E1008F7E8093E100809124
:1023C00065028E7E8061809365029F918F910F9050
:1023D0000FBE0F901F90189580FFF7CF8091E200FD
:1023E0008E7E80618093E2008091E1008E7E8093FA
:1023F000E100809165028E7E8160E5CF1F920F9291
:102400000FB60F921124CF92DF92EF92FF920F93AB
:102410001F932F933F934F935F936F937F938F936C
:102420009F93AF93BF93EF93FF93CF93DF93CDB77A
:10243000DEB76C97DEBFCDBF1092E9008091E80057
:1024400083FF25C068E0CE0145960E946B1082EFA5
:102450008093E8008D8987FF39C09091E80090FF54
:10246000FCCF982F907609F034C19E894F89588D02
:102470002F89F88C911131C0803861F58091630209
:102480008093F1001092F1008EEF8093E8006C963B
:102490000FB6F894DEBF0FBECDBFDF91CF91FF9195
:1024A000EF91BF91AF919F918F917F916F915F91CC
:1024B0004F913F912F911F910F91FF90EF90DF90DF
:1024C000CF900F900FBE0F901F9018959EEF909396
:1024D000E800C7CF1092F100D5CF913059F48111A7
:1024E000D3CF4130510581F6809163028D7F809377
:1024F0006302CACF933049F48111C6CF41305105F0
:1025000019F6809163028260F2CF953041F4809198
:10251000E80080FFFCCF20682093E300B5CF963021
:1025200009F0A9C00B8D1C8D22E01092E9001092D9
:10253000610210926002F2122EC010925F0210929D
:102540005E020E943A101F8299E09983FA8291E01C
:102550009E8390EA98879AEF998720916002309144
:102560006102275F3F4F3C832B838D831092E900EC
:10257000109261021092600210935F0200935E025B
:1025800049E050E0BE016F5F7F4F80E00E94141071
:102590000E943A1079CF10935F0200935E020E946E
:1025A000510FDC0112960D911C910115110509F4D2
:1025B00051C1D801ED91FC910480F581E02DBE015F
:1025C0006B5E7F4FC8010995009709F03EC1F80185
:1025D00000851185EACFF3E0FF120EC08F898823B2
:1025E00009F440C0823061F440E867E080EB9AE192
:1025F0000E947A14811148CF81E28093EB0047CF8B
:10260000813029F440E86BE084EA9AE1F1CF83302D
:1026100099F70E94510FDC011296ED90FC908E010B
:102620000F5F1F4F6801E114F10479F0D701ED91BC
:10263000FC910680F781E02DB801C7010995080FCC
:10264000111DF701E084F184EECFD8011C92F60150
:1026500001900020E9F73197BF016C197D0940E036
:10266000C601C6CF6EE87AE1FB01449150E080E8F4
:102670000E94141009CF973009F4BECF983021F48E
:1026800081E08093F10000CF993009F0FDCE837096
:1026900009F0B2CFEEE0F1E081E031E096E3219184
:1026A000222371F08093E9003093EB00DF01119752
:1026B0002C912093EC009093ED008F5F873079F799
:1026C0008EE78093EA001092EA008F898093C3021C
:1026D000DBCE8B8D9C8D1092E900109261021092DE
:1026E000600290935F0280935E02898D811192C097
:1026F0008E899D89913A49F4813209F07DCF47E076
:1027000050E065E071E080E0B3CF913209F074CF22
:10271000833269F48F89988DB0E0A0E08093010145
:1027200090930201A0930301B0930401ADCE8032D7
:1027300069F48091E80082FFFCCF67E085E091E0DA
:102740000E946B108BEF8093E8009ECE823209F0DE
:102750009BCE8F8980930C01EEEFFFE785919491DA
:102760008B3F9C4D51F1E0E0F8E0809105019091A4
:102770000601A0910701B0910801803B9440A1059A
:10278000B105F1F480910C0180FD1AC0EE3F8AE0A2
:10279000F80789F587E797E7918380838091600048
:1027A0008093620288E19BE00FB6F894A89580932D
:1027B00060000FBE9093600067CEEEEFFAE0D5CFD9
:1027C000808191818737974709F05ECEA8958091E7
:1027D0006000886180936000809162028093600055
:1027E000EE3F2AE0F20789F08091FE0A9091FF0AFD
:1027F0009183808349CE808191818737980751F2F8
:102800009093FF0A8093FE0AC5CF1092FF0A1092A0
:10281000FE0A3ACE0E94510FDC0112960D911C91D6
:102820000115110509F4E8CED801ED91FC91019054
:10283000F081E02DBE016B5E7F4FC80109958111CB
:1028400023CEF80100851185EBCF181619060CF47C
:102850001BCED2CEF1E0FF12BECE62E97AE104CF08
:102860000F920FB68F939F93EF93FF938091270161
:102870008D5F8D3708F08D5780932701EEE2F1E0F0
:1028800080818E4F808391819F4F918382818F4F72
:10289000828383818F4F8383E8E2F1E080818F5FC1
:1028A000808381818F4F818382818F4F8283838157
:1028B0008F4F83838FB18F6066991C9B88278F36DB
:1028C00081F480912601981B963068F0E0E0F8E0F2
:1028D00087E78083818388E180936000F0936000C4
:1028E000FFCF90932601FF91EF919F918F910FBEA3
:1028F0000F901895EF92FF920F931F93CF93DF9352
:10290000F82E192FE62E042F81E0860F880F0E94E3
:10291000E60F83E00E94E60FCF2DD12FEC0EFD2EA7
:10292000F11CCE15DF05B9F007FF13C0FE0184913D
:102930000E94E60F182F80E00E94E60F8123219667
:102940008111EFCFDF91CF911F910F91FF90EF9009
:1029500008958881EDCF81E0F5CFE6E6F2E01382BD
:10296000128288EE93E0A0E0B0E084839583A68392
:10297000B78388E191E0918380838FEF9FEF958704
:1029800084870895789483E084BD83E085BD81E0E9
:1029900080936E00E1E8F0E083E08083E0E881E08E
:1029A0008083E1E983E08083E0E981E08083E1ECFA
:1029B00087E08083E3EC81E08083E0EC82E0808349
:1029C000E2EC81E08083EAE787E0808380688083AF
:1029D0001092C30210926302109265028091D70098
:1029E00081608093D70080EA8093D80089B58061A8
:1029F00089BD89B5826089BD09B400FEFDCF81E043
:102A000090E00E9478108091D8008F7C8061809344
:102A1000D8008091E000807F8093E0008091E10009
:102A20008E7E8093E1008DE08093E200559A209A9B
:102A300084E18093000181EC80937C0081EF85B973
:102A400087EE84B982E38BB982EF8AB9769A6E9861
:102A500080EF81BB10BA80E58CBD81E08DBD85E043
:102A60000E9433115F9A85E00E9433115C98E2EC7A
:102A7000F4E085918EBD00000DB407FEFDCFEF3C64
:102A8000C1F75C9A81E88093640081E080936500DF
:102A900080E00E94070F0E94361187FF15C05C98E6
:102AA00085EA8EBD00000DB407FEFDCF5C9A2E981E
:102AB0002F982D988091640080628093640081E05B
:102AC00083BF889513BEFCCF0E94361182FF37C0AA
:102AD0002D980E94361184788438A1F42D9A88ECC0
:102AE0000E9433112F986FEF82E090E00E94CE1C7D
:102AF00084EF91E00E9478102F9A0E94361184781A
:102B00008438D9F30E94361184718431A1F42D9A4E
:102B100088EC0E9433112E9860E082E090E00E94E1
:102B2000CE1C84EF91E00E9478102E9A0E943611FC
:102B300084718431D9F388EC0E943311C5CF2D9A6A
:102B400082E090E00E94C61C8823C1F13E9A3F9A21
:102B500081E090E00E94C61C182F147081FF0AC00B
:102B600011112E98C1EFDFEF0E94361186FF29C0A8
:102B70002E9A2F9A82E30E9433110E9436118111FE
:102B8000F9CF42E3442E41E0542E1CE05CE0D52E08
:102B900064E0662E712C73E0272E312CCC24C39474
:102BA00080912C01882309F47BC010922C0120E035
:102BB00030E0232BA9F30E940000F0CF3E983F980D
:102BC000C7CF112329F0C430D10511F42E9A2F98C4
:102BD00081E00E94070F0C2F0770902ECE01E3E0DA
:102BE00095958795EA95E1F7AC015695542F4427C2
:102BF0005795479570E060E08E3F2FEF920791F177
:102C0000DA01AC53BD4F30E020E0FB01E153FB4F54
:102C10007F01FA01EC5BFC4F6F01F701E20FF31F3C
:102C2000E491F0E03F01092C02C0660C771C0A9485
:102C3000E2F78F3F980739F05496BC905497B62826
:102C40005496BC925497992039F05601A20EB31EA7
:102C5000F50104890729048B2F5F3F4F1196283512
:102C60003105D9F60196685A7F4F40585F4F603B57
:102C7000710509F0C1CF80E00E94070F8FE00E942C
:102C800033112196C931D10509F06ECF112311F00E
:102C90002F9A2D9880E991E00E9478102D9A6ACFA2
:102CA00090912E0180912D01F92FF81B8F2F2091EB
:102CB0000001F21740F48F5F821708F078CFC3BE8F
:102CC000889513BE74CFC0922C0190932D01F20110
:102CD00080819181019680839183809149028093C4
:102CE00048020E943611082F8093490280915D02AC
:102CF000883060F5E82FF0E0E058F94E0C94001DA4
:102D00008816AA16AE16AA160D188F1CB71CA71C7B
:102D100020E04AE456E170E060E090E080E00E944C
:102D20002D1184E00E943E11882341F0109245014C
:102D300082E38093430182E080935D0288E00E94F9
:102D40003E11882319F086E080935D0281E00E94A5
:102D5000070F2DCF0C70D1F78F5FF6CFC0914501D3
:102D6000D1E0DC0F20E04DE655E164E170E087E062
:102D700090E00E942D118D2F6AE00E94E01CD92F57
:102D8000282F49EA53E164E170E089E590E00E9470
:102D90002D112D2F49EA53E164E170E08AE690E0BD
:102DA0000E942D11809143019FEF980F9093430152
:102DB0008111CCCFEC2FF0E0EE0FFF1FE95AFC4E53
:102DC00025913491A9014F5F5F4FF9019491C92F6B
:102DD000C295CF70CF5FC09346019F709F5F909365
:102DE00047016C2F70E0E8E4F1E0DF01D0E01D92D4
:102DF000DF5FDC17E0F38F5FE60FF71F8917A8F39B
:102E0000FA018491482F50E0E4E055954795EA9502
:102E1000E1F7D42F40933F018F70809340011092CF
:102E200041011092420110924301F9013296E4915E
:102E3000AE2FB0E0F4E0B595A795FA95E1F7A09331
:102E40003B01EF70E0933C01AB5BBE4FCE9FA00D0A
:102E5000B11D11241396CC9210923D0110923E01A7
:102E600010924401D90114962D5F3F4FF90124912E
:102E7000E22FF0E004E0F595E7950A95E1F7E0939D
:102E800039012F7020933A01EB5BFE4FC29FE00D9A
:102E9000F11D112422E0238323E0F22E9D01FD0188
:102EA0000491E02E2F5F3F4FEE20B1F0F901A49086
:102EB000FA2DFF70BF2EEA2DF0E0689413F8F59517
:102EC000E7951694E1F7BC9EE00DF11D1124EB5B34
:102ED000FE4FF382EA94E6CF202F30E02F5F3F4F82
:102EE000A20FB31FF3940AE0F012D8CF109238016A
:102EF000109236011092370110925A0210925B0222
:102F000004EF0603D001079FB00D1124A358BF4F53
:102F1000B0935302A09352027092550260925402F1
:102F2000292F30E00203F001039FF00D1124FD96DC
:102F3000F0935702E09356023092590220925802C1
:102F4000CB3058F50AEF0603A001079F500D11245E
:102F5000405C5F4F50934B0240934A029630E0F53D
:102F60004AEF4203C001439F900D11248096909335
:102F70004D0280934C0280914A0290914B029093B3
:102F80004F0280934E0280914C0290914D0290939B
:102F900051028093500284E0D7CED73028F470924B
:102FA0004B0260924A02DACF665071094617570702
:102FB0002CF0B0934B02A0934A02D0CF4650510957
:102FC0000403B001059F700D11246C5F7F4F709357
:102FD0004B0260934A02C2CF833028F430924D02F4
:102FE00020924C02C8CF90E02250310982179307FB
:102FF0002CF0F0934D02E0934C02BDCF029744EFCA
:10300000BC0146039001479F300D11242D5F3F4FB7
:1030100030934D0220934C02AECFB0905A02809173
:103020004A0290914B0220914C0230914D02B11016
:1030300010C060914E0270914F0240915002509129
:1030400051028617970709F0D2C02417350709F0F7
:10305000D7C040913601442329F047FF1DC14F5F7F
:103060004093360140913701442329F047FF16C1B0
:103070004F5F40933701609138016623B9F040916A
:10308000360150913701452B89F44091350150911B
:103090004601459FA0011124709134014B5B5E4FA6
:1030A000470F511DFA0163831092380150913D0181
:1030B0005523C1F040914401515050933D015111AD
:1030C0000BC0423019F0443009F0EAC052E350938B
:1030D0003D014F5F4093440140914401433011F45E
:1030E0001092430140914101D0913F01C0914001B4
:1030F000442309F402C19C01D19F200D311D1124EC
:1031000047FDE6C0415040934101240F311D283254
:10311000310584F4209154023091550282179307AF
:103120004CF4019690934B0280934A0290934F0285
:1031300080934E022091430169E1223008F063E060
:10314000F090440170E080913201909133010E942F
:10315000EC1C892B31F452E05F1518F02C252093DC
:1031600043018091410190914201892B082E000C6E
:10317000990B20913D01822B892B09F04BC06C2FBC
:103180008D2F0E944911833009F0F4C086E08093AE
:103190004301F110F3C080913B01D81303C180912A
:1031A0003C01C813FFC0C092440187E180933D01F8
:1031B00080914601C89FC00111248B5B9E4FBC01CA
:1031C0006D0F711DEB011B8203FF8CC288E00E9412
:1031D0003E11882319F0BC24B0925A0280915B0200
:1031E0008F5F80935B02813208F06DC013C0861739
:1031F00097070CF045C0019690934B0280934A02CA
:10320000241735070CF042C02F5F3F4F30934D021B
:1032100020934C020FEF20914701802F002E000CCD
:10322000990B281719060CF465C2010250011124EC
:1032300099249A94C0914C02D0914D02E0904A0298
:10324000F0904B0220914601892D092C000C990B1E
:10325000281719060CF44CC2602F892D0E944911C1
:10326000BE016A0D7B1D282F45EA51E1C701E92DFA
:10327000E102800D911D11240E942D119394DACF4B
:10328000681779070CF0BCCF0197B6CF42175307E8
:103290000CF621503109BACF4150E2CE4150E9CE6F
:1032A000433071F4809145018F5F809345018932ED
:1032B00051F484E68093430185E080935D02AACFB8
:1032C000453009F009CF82E38093430182E0F5CFD6
:1032D0004F5F40934101240F311D47FD3A952D3436
:1032E00031050CF427CF2091520230915302281758
:1032F00039070CF01FCF019715CF80914201882329
:1033000009F418CF9091470187FD20C08150809328
:103310004201963008F40ECF492F4350550BC41785
:1033200015060CF007CF809158029091590228178A
:1033300039070CF0FFCE2F5F3F4F30934D022093A3
:103340004C023093510220935002F4CE8F5F809351
:103350004201963008F4EECEC33008F4EBCE8091F3
:10336000560290915702821793070CF0E3CE21503A
:103370003109E3CF80914301817009CF71E0F712E9
:1033800011C080913901D8130DC080913A01C81342
:1033900009C087E180933D01F0923E0182E0809375
:1033A000440112CF6C2F8D2F0E944911A82E85E069
:1033B000A8120BC093E09F1508F406CF84E0809319
:1033C000440187E180933D01FFCEEE24E394EC0EAF
:1033D0006E2D8D2F0E944911F82EE2E0E81718F4A7
:1033E000F5E08F1303C023E0A2123AC0B1103EC033
:1033F00002FF14C136E0F3127DC0AA24AA94AD0ED8
:103400006E2D8A2D0E9449118111DECEF092380175
:103410008C2F90E0019620914601289FF001299F72
:10342000F00D1124EB5BFE4FED0FF11D1382A09206
:103430003401E0923501D09236016C2F8D2F0E941D
:103440004911833009F4C0CE6C2F8A2D0E94491196
:10345000843008F0B9CEA0923F01D0924101B4CEA1
:10346000E092400184EF80934201AECE80915B02F6
:103470008111BECF80914A0290914B0205FF0EC090
:103480002091540230915502821793070CF09CCE84
:10349000019690934B0280934A0296CE06FF0AC093
:1034A0002091520230915302281739070CF08CCE2C
:1034B0000197EFCF80914C0290914D0207FF0EC013
:1034C0002091580230915902821793070CF07CCE5C
:1034D000019690934D0280934C0276CE04FF74CEF9
:1034E0002091560230915702281739070CF06CCE04
:1034F0000197EFCF47E0F41235C0AA24A394AD0E94
:103500006E2D8A2D0E94491181115ECEF0923801F4
:103510008C2F90E0019620914601289FF001299F71
:10352000F00D1124EB5BFE4FED0FF11D1382A09205
:103530003401E092350124EFF22EF09236016C2F27
:103540008D2F0E944911833009F43ECE6C2F8A2DB5
:103550000E944911843008F037CEA0923F01F092CA
:10356000410132CE58E0F51228C0A1102DCEEE2434
:10357000EA94EC0E6E2D8D2F0E944911843008F0D4
:1035800023CEF09238018C2F90E0019620914601D5
:10359000289FF001299FF00D1124EB5BFE4FED0FEA
:1035A000F11D1382D0933401C0933501D0923701BD
:1035B000E0924001D092420107CE69E0F61204CEBB
:1035C00092E0A92EAC0E6A2D8D2F0E944911811117
:1035D000FBCDF09238018C2F90E0019620914601AE
:1035E000289FF001299FF00D1124EB5BFE4FED0F9A
:1035F000F11D1382D0933401A092350184EFF82E8F
:10360000F09237016C2F8D2F0E944911833009F4FD
:10361000DBCDE0924001F0924201D6CD05FF09C01A
:1036200099249A949D0E6C2F892D0E944911843003
:10363000D8F006FD2EC007FF0BC073E0A71208C02C
:10364000C1506C2F8D2F0E944911843008F442C064
:1036500004FFBACD83E08F1508F4B6CDE0924001A7
:1036600084EF809342013AC082E0809343016C2F43
:103670008D2F0E944911833049F46C2F892D0E94AF
:103680004911833019F486E08093430190923F0101
:10369000E4CE992493949D0E6C2F892D0E9449119C
:1036A000843048F684E0809343016C2F8D2F0E9474
:1036B0004911833049F46C2F892D0E9449118330C0
:1036C00019F486E08093430190923F0184EF809348
:1036D00041017ACDC0934001D092420186E08093AF
:1036E000430172CDBB2009F495CD10925B0292CDBF
:1036F0000F5F91CD00914401C0914001C19FE00155
:103700001124E0903F01E19E7001112480904C0251
:1037100090904D02A0904A02B0904B028FEF800F24
:10372000823008F0E1C0E0913D01EE23A9F0F0E025
:10373000E357FE4EE491BE016E1B7109680D791DC1
:1037400020913E014BE251E1C7018A0D9B1D0E9471
:10375000271188E0809343010230A1F480913A015F
:10376000B401819F600D711D11248091390120E009
:1037700049EF50E1F501819FE00DF11D1124CF01CA
:103780000E94271180914201BE01680F711D87FDC3
:103790007A95680D791D809141019701280F311D9F
:1037A00087FD3A95C9012091430147E15FE08A0D09
:1037B0009B1D0E9427118091360160913701811174
:1037C00002C0662329F190913501062E000C770B7B
:1037D000919F600D711D112420914C0230914D027A
:1037E000620F731F20913401082E000C990B219F4A
:1037F000800D911D1124E0914A02F0914B020AEFD5
:103800002091380145EA51E18E0F9F1F0E94870DDC
:1038100080915A02882309F499CA80915B02811130
:1038200095CA80913201909133018F709927892B2D
:1038300031F480915C0292E0892780935C02C09110
:103840004C02D0914D028091580290915902C817B4
:10385000D90754F460915C0270E022E045ED5EE02F
:103860008CE390E00E942711E0904A02F0904B0216
:103870008091540290915502E816F90654F4809113
:103880005C0220E045ED5EE06CE170E090E00E94BB
:10389000271180915202909153028E159F0574F466
:1038A00080915C0221E045ED5EE06CE170E0E8E7CC
:1038B000F0E0E81BF109CF010E9427118091560228
:1038C000909157028C179D070CF040CA80915C02C2
:1038D00068E370E0681B710923E045ED5EE08CE36E
:1038E00090E00E94271132CA043009F04BCFE091DA
:1038F0003D01EC3019F439E030934301F0E0E35737
:10390000FE4EE491BE016E1B710961507109680D94
:10391000791D2091430147E15FE0C70148CF20E0D6
:1039200043E85DE064E170E088E090E00E942D11E2
:1039300080914301882321F081508093430106CA7E
:10394000F4EDF093430107E000935D02FFC920E02E
:1039500041E859E070E060E090E080E00E942D11C5
:10396000809143018111E8CF10925D02EFC920E000
:103970004FE755E070E060E090E080E00E942D119C
:103980008CE00E943E118111EFCFE0C9F999FECF82
:1039900092BD81BDF89A992780B50895262FF9998F
:1039A000FECF92BD81BDF89A019700B4021639F09E
:1039B0001FBA20BD0FB6F894FA9AF99A0FBE08956F
:1039C000991B79E004C0991F961708F0961B881F71
:1039D0007A95C9F780950895AA1BBB1B51E107C0D2
:1039E000AA1FBB1FA617B70710F0A61BB70B881F8F
:1039F000991F5A95A9F780959095BC01CD0108951E
:103A0000EE0FFF1F0590F491E02D0994F894FFCF7D
:103A100010FFFFFFFF00E100000000000000C18078
:103A20008100000000000000650F8C10860F7B0FE6
:063A3000CC0F8A0FA80F65
:00000001FF
