:100000000C944E0D0C94760D0C94760D0C94760D8C
:100010000C94760D0C94760D0C94760D0C94760D54
:100020000C94760D0C94760D0C9480110C94EF11B9
:100030000C94760D0C94760D0C94760D0C94760D34
:100040000C94760D0C94760D0C94760D0C94760D24
:100050000C94760D0C94760D0C94760D0C94211462
:100060000C94760D0C94760D0C94760D0C94760D04
:100070000C94760D0C94760D0C94760D0C94760DF4
:100080000C94760D0C94760D0C94760D0C94760DE4
:100090000C94760D0C94760D0C94760D0C94760DD4
:1000A0000C94760D0C94760D0C94760D8705818555
:1000B0000461626465044082740600012202031632
:1000C0000423048437017187227306090121510238
:1000D000520343044405116105155500024187028E
:1000E00025650000872014720142091121516171B8
:1000F0006223635600025586040333443605346692
:1001000076078700872056540340506005801323EC
:1001100024170151052132434436024527047566F0
:100120003787008770118603612262000185028390
:10013000760003163647017187802603018300018C
:100140000202738406223242253545065464742720
:100150003747011187405574027517014701730134
:100160006302111503365607024124878074050186
:100170005700020477028186024373031526470065
:10018000875105010001020003524426011703169E
:10019000365701328722621500026317026114008C
:1001A0000411232425032607270087428216000313
:1001B0000717270115000643345425657606443594
:1001C00055266677008765140707818283848586B4
:1001D000870111020417047142723600024647017A
:1001E000018772210701310A114151617152730473
:1001F0001417012501670413336536032255850161
:1002000001874137571002428203335383044484E9
:1002100005850686078700033656470232340252A8
:1002200054000087434247024445023454014602C9
:100230007324021364022767023656870075260767
:1002400001020304050607054757677787026474B0
:1002500001550211170246560181872135410312CB
:1002600013230807172737475777870000032233E0
:100270003401670087613471074223244464466671
:1002800001620002537500015500870015870000C8
:100290000266770122020306011700872565010720
:1002A000510484058506070C213161021262631432
:1002B0002434546400000226560274450087001559
:1002C00081000370727300000401031406042556B4
:1002D000378701458786160100060227576777870B
:1002E000012600021525040717374701228700144D
:1002F0008705333435363700021777000303064687
:100300000256270166874044420141052060374775
:10031000570143000002276702315187404487029A
:1003200034540176028477013501530333244603A4
:1003300042645587100177000104080717273747E3
:1003400057678703727476031113150000872036F0
:100350007604040506070135017500000006142423
:100360003444546487006602000903133343536323
:1003700073341504705777870285470004232507D7
:1003800067008700035700060111213151710001F8
:1003900073013604468647670087006141000721E4
:1003A0002363142454640237570004010334060203
:1003B00076470087204607062233445566770217A2
:1003C0004700000000022334870002650167020134
:1003D000710003742676031141270643642506172E
:1003E00087008720168100058217273747000123E1
:1003F0000122015701248700651205030405060741
:100400000F011121317162137455363757677787A1
:1004100000016401410147018187001186000463E6
:1004200006778705073747576701130133021727F8
:10043000008700428700000807172737475767776C
:100440000183020105000087864301014003354511
:1004500055000271870114028407008570818502AE
:1004600053520614245464748402344401420162D9
:10047000010400850042810510203040500006151F
:100480002535556575000114030545850084044331
:10049000840424232221053444547374000111017F
:1004A0003101640101D5F08D14A1C881CFD9F1AF1C
:1004B0002000F0F89C8E8783878E9CF8F00000FE69
:1004C000FF0303030303070EFCF80000FEFF030312
:1004D000030303070EFCF80000FFFF00000000000C
:1004E0000000FFFF0000FEFF8383838383C7EE7C51
:1004F000380000F8FC0E07030303070EFCF80000A9
:100500003F7FE0C08080C0E07F3FFFFF010101012D
:10051000010101FFFF0000FFFF0C0C0C0C1C3E77DB
:10052000E3C100007FFFC0C0C0C0C0E0703F1F003B
:10053000001F3F70E0C0C0C0E0703F1F00007FFFA1
:10054000C1C1C1C1C1E3773E1C00001F3F70E0C0C4
:10055000C0C0E0703F1F000000000001FFFF01006D
:100560000000804000F040F000F0501000F000006B
:1005700000F0507000000018A48232D2E4D232821F
:10058000A418000000F010D00000F050100010F08F
:10059000100000007CC63AF2ECD0A0A040404080A1
:1005A000000000F090F000F060C0F000F010E000FB
:1005B000000000F0507000F000F00010F01000009B
:1005C0008040A0269AC2F2C418608000000000F0AB
:1005D0000000F060C0F0000000FC860A6A2A8ACAA7
:1005E0000A86FC0000010001000101010001010177
:1005F0000001000000000003040C0A8884888A8C33
:1006000084830000000101010000010101000001DC
:100610000000000000010306050D0B0B0B0D060387
:1006200000000001000100010000010001010000C4
:1006300000000001000000010101000001000000B5
:100640000304090B0B0904090B0A08070000000149
:1006500000000100000100000000070C0B0A080860
:100660000C07000000000000000000000000000077
:1006700000000000000000F80848E80F000406042D
:10068000000FE84808F800004040F0E0400000F0AB
:10069000101000F010F000F02040F00010F01000FA
:1006A000F0907000F010F000F00000000000001862
:1006B000A48232D2E4D23282A418000000008E302C
:1006C0001C308E00BEA2BE00BE0408BE00BE0814D0
:1006D000A200BEAAAA008638860000000000000022
:1006E000000000000000000000000000000000000A
:1006F00000000000000000030202023E20242C241F
:10070000203E020202030000000001000000000180
:1007100001010001010100010000010000010000D1
:10072000010001000181818081818180808000033E
:10073000040C0A8884888A8C8483808000000F01DE
:1007400002818F808F888F808F81020F000F02853A
:1007500088808F8A8A80818E01000000000000005E
:100760000000000000000000000000000000000089
:10077000000000000000000000007C827D7D557DAF
:1007800029827C000000000010107C381000007CE2
:100790000810087C007C447C001C601C007C5444D5
:1007A00000000000FF41023178FD30310055FF00AC
:1007B0000000FF41023130FD78310055FF0000009C
:1007C000FF4112197C7D18110055FF000000FF4108
:1007D00012317C7D30110055FF0000000000000048
:1007E0000000000000E0A0E000E0A0E000E0A020A9
:1007F00000E0A0A000E0A0A00000E01009C969C9C5
:100800000910E000000000008080E0C0800000E0EF
:10081000202000E020E000E0408040E000E0A02058
:1008200000E0A0E001E322E202020203E243814091
:10083000E000E123E202E222C203E2A32100000081
:1008400001E322E202E24283E20301C03000E1233D
:10085000E202E2A22203E2A3210000000000000065
:100860000000000000030000000301020003020278
:100870000002020300020203000003844B4B494BB9
:100880004B8403000000000000000301000000038F
:100890000202000301030003000000030003020240
:1008A0000003010200030103000000000300000038
:1008B0000300030203000302010003020200000020
:1008C000000302030003000003000601000003020E
:1008D00003000300000003C06020F07030E0E0C0BF
:1008E0000000000000000000003E083E003E223EE6
:1008F000003E2020003E221C00001F20585E4B5E60
:1009000058201F000000000004041F0E0400001FF8
:100910000D17001F15110017151D00011F01001FE5
:10092000091F001F0D1700011F01000000001F100C
:1009300010001F151100071807001F1511001F10C8
:100940001000000000000000000000000000000097
:100950000000000000001F3F3C1D3F3C3D1F3F3F8B
:100960001F000000804000000000000000000000A8
:100970000000000000000000000000000000000077
:100980000000000000000000000000000000000067
:10099000000000000000000000003E2222003E1285
:1009A0002E003E2A22003E221C003E00023E020093
:1009B0002E2A3A0000140000000000000000000091
:1009C0000000000000000000000000000000000027
:1009D0000000000000000000000000000000000017
:1009E0000000000000000000000000000000000007
:1009F00000000000000000000000000000000000F7
:100A00000000000000007C4444007C447C007C44E6
:100A100038007C5444000000007C247C007C1830AA
:100A20007C007C4438000000007C446C007C245C2A
:100A3000007C247C007C141C007C107C007C007CEE
:100A40004444005C547400000000000000000000FA
:100A50000000000000000000000000000000000096
:100A60000000000000000000000000000000000086
:100A70000000000000000000000000000000000076
:100A80000000000000000000000000000000000066
:100A90000000000000000000000000000000000056
:100AA00000003E2A2E38000E380E00000000000024
:100AB0000000000000000000000000000000000036
:100AC0000000000000000000000000000000000026
:100AD0000000000000000000000000000000000016
:100AE0000000000000000000000000000000000006
:100AF00000000000000000000000000000000000F6
:100B000000000000000000000000000000000000E5
:100B1000000000001F060C061F001F0D170010002C
:100B2000001F15171C001F1010001F001F02041FBC
:100B3000001F041B00071C0700000000000000004D
:100B400000000000000000000000000000000000A5
:100B50000000000000000000000000000000000095
:100B60000000000000000000000000000000000085
:100B70000000000000000000000000000000000075
:100B80000000000000000000000000B8A8E800F825
:100B9000283800F8A88800F8888800F800F848F895
:100BA00000F880800000000008F80800F820F80035
:100BB000F848F800F81020F800F820D800B8A8E8A5
:100BC00000005000000000000000000000000000D5
:100BD0000000000000000000000000000000000015
:100BE0000000000000000000000000000000000005
:100BF000000000000000000000F040B000F05010C5
:100C00000070807000F000F02040F000000000F064
:100C10005070C000F090F00010F01000F050100084
:100C20007050D000000000F0501000F010F000F004
:100C3000D07000000000F050F000F0D07000F01014
:100C4000E000F000F000F05070C000F010F0007014
:100C5000C070000000000000000000000000000064
:100C60000000000000000000000000000000000084
:100C7000000000000008F80800F900F9A8B9E10137
:100C8000F8A88900F869B801F800F980F800B8A957
:100C9000E901010001F8A9B8E001F848B901F988B3
:100CA000F90139C070C03801F81020F901010001C4
:100CB000F8290800F888F900F968B900010001F97D
:100CC00028F801F969B801F9897100F9A98900F8D2
:100CD0001120F800B8A8E8000000000000000000A3
:100CE0000000000000000000000000000000000004
:100CF000000000007C247C007C18307C007C4438A0
:100D000000000000047C04007C107C007C54440043
:100D10000000007C147C007C345C007C4438007C47
:100D2000407C007C545C70007C447C001C701C0087
:100D30000000007C4444007C447C007C1830187C1B
:100D4000007C1830187C007C407C007C08107C0003
:100D50007C00047C04001C701C00000000000000EB
:100D600000000000000070181E3F3F3F3FFFFFFFE4
:100D7000FFFFFF3F3F3F3F1E0000FEFFFFFFFE0063
:100D800000000000FEFFFFFFFE0000FCFEFEFFFF74
:100D9000FF7F3F3F3F3F3F3F3F1E000000000000FE
:100DA00000000000000000FCFEFEFFFFFF7F3F3F51
:100DB0003F3F3F3F3F1E0000FEFFFFFFFEF8E08089
:100DC0000000FEFFFFFFFE0000FEFFFFFFFF3F3FB2
:100DD0003F3F7FFFFFFEFEFC0000000000FFFFFF23
:100DE000FFFFFF00000000000000FFFFFFFFFF7E8D
:100DF0007E7E7E7EFFFFFFFFFF0000FFFFFFFFFF05
:100E0000FF3C3C3C3C3C3C3C180000000000000027
:100E100000000000000000FFFFFFFFFFFF3C3C3C24
:100E20003C3C3C3C18000000FFFFFFFFFF7FFFFF42
:100E3000FEF8FFFFFFFFFF0000FFFFFFFFFF0000C6
:100E4000000000FFFFFFFFFF00000000007FFFFF2A
:100E5000FFFF7F000000000000007FFFFFFF7F001A
:100E6000000000007FFFFFFF7F00000F3F7F7FFF3C
:100E7000FFFEFCFCFCFCFCFCFC7800000000000019
:100E8000000000000000000F3F7F7FFFFFFEFCFC22
:100E9000FCFCFCFCFC7800007FFFFFFF7F000107EB
:100EA0001F7FFFFFFFFF7F00007FFFFFFFFFFCFCB6
:100EB000FCFCFEFF7F7F3F0F080800000018183C75
:100EC0003C7E7EFF007E0000000000000000007EEF
:100ED0007EFF3C7E183C0018000000101038183CC3
:100EE0001C3E1C3E183C103800100008081C183C22
:100EF000387C387C183C081C00080C0C18BCA4FE7C
:100F000082FE32FED2FEE4FED2FE32FE82FEA4FE5D
:100F100018BC00000307040F0C0F0A0F080F040F82
:100F2000080F0A0F0C0F040F030700001CBEA2FFDE
:100F300081FF19FF69FF72FF69FF19FF81FFA2FF9F
:100F40001CBE00000307040F0C0F0A0F090F040F4B
:100F5000090F0A0F0C0F040F0307000060F090FC4C
:100F60006CFE62FE1AFE02FE02FEAAFE12FE44FEA5
:100F700038FE0000000F060F0C0F080F000F010FC6
:100F8000020F0A0F090F040F03070000307848FE14
:100F900036FFB1FF4DFF01FF81FF15FF49FF22FF23
:100FA0001C3E00000004040F0A0F080F050F010F7C
:100FB000040F040F080F0E0F000E000038FC44FE53
:100FC00012FEAAFE02FE02FE1AFE62FE6CFE90FCFB
:100FD00060F000000307040F090F0A0F020F010F52
:100FE000000F080F0C0F060F000F00001C3E22FF21
:100FF00049FF15FF81FF01FF4DFFB1FF36FF48FE9E
:1010000030780000000E0E0F080F040F040F010FC0
:10101000050F080F0A0F040F000400009CBE62FFBA
:1010200001FF01FF01FF01FF01FF01FF81FFA2FF9F
:101030001CBE0000010302070607040F040F050F82
:10104000080F080F0C0F040F0307000000809CBE60
:10105000A2FF01FF01FF81FF01FF01FF01FF41FF2F
:10106000A2FF1C3E0307040F0C0F080F080F040F0C
:10107000040F040F06070207010300009CFE22FF75
:1010800041FF01FF01FF81FF01FF01FF41FF22FF3F
:101090009CFE00000107060F080F080F0C0F040F3D
:1010A0000C0F080F080F060F0107000080DEDEFF9F
:1010B000BFFF37FF93FF3FFF93FF37FF9EFFC0FE49
:1010C00060F040E00005040F0D0F070F020F0D0F39
:1010D000050F0B0F020F060F0D0F040F0C0C00FC79
:1010E000FCFC84FC08F868F828F888F8C8F808F8C8
:1010F00084FCFCFC00FC000F000F070F0C0F0B0F13
:101100000A0F080F080F0C0F070F000F000F0C0C31
:101110007C7CC6FE3AFEF2FEECFCD0F0A0E0A0E043
:1011200040C040C040C080800000010103030607AA
:1011300005070D0F0B0F0B0F0B0F0D0F060703030A
:10114000C0C020E0D0F093F3CDFFE1FF79FFE2FED5
:101150008CFC30F040C080800101020304070507C9
:10116000050704070203040705070507040703032F
:101170000000030506080A0B0B0C0C0D0D0D0C0CE2
:101180000B0B0A08060503000C0C00000000000011
:10119000000000000000000000000000000000004F
:1011A00000007CC63AF2ECD0A0A040404080000194
:1011B0000306050D0B0B0B0D060300FC860A6A2ABD
:1011C0008ACA0A86FC000000070C0B0A08080C07F4
:1011D0000000B66DDB9292929292DB6DB6000D0B21
:1011E000060404040404060B0D008C5A5E568E2A75
:1011F0002E8E1A5ECC0006080908080A080A080D97
:10120000070000E038E080E0388E38E00000060596
:101210000C0A09080C0504050702FC060AC6E2F6DA
:10122000C2C60256FC00070D0808090B080C080D81
:101230000700FC060AC6C2F6E2C60256FC00070D0D
:101240000808080B090C080D0700FC064A66F2F6B0
:1012500062460256FC00070D08080909080C080D33
:101260000700FC064AC6F2F6C2460256FC00070D0D
:1012700008080909080C080D07000000000000001C
:1012800000000000000000000000000000000C0E44
:101290000E06000000000000000000000000020038
:1012A000040602000406020004060000000000001C
:1012B0000000000000000E0E0C0000000000000006
:1012C0000000000000000000000033990000000052
:1012D000000000000000030900000099CC0000009D
:1012E00000000000000000090C00000000000000E9
:1012F00000000000000000000000030707060000D7
:1013000000000000000000000000020004060200CF
:1013100004060200040600000000000000000000B7
:1013200000000707030000000000000000000000AC
:10133000000000000000000000008D0473045B0446
:10134000470431041904F603E203C803B303990305
:10135000820364034D0333031B030503ED02D40230
:10136000BD029B028A0274025A023B02230201025E
:10137000E101C501AA01940180016B01540138010A
:1013800023010401E400C700AC000F18FCFEFEFFBF
:10139000FF7F3F3F3F7FFFFFFEFEFCFFFFFFFFFFA2
:1013A0000000000000FFFFFFFFFF0F3F7F7FFFFEF9
:1013B000FCFCFCFEFF7F7F3F0F00001C3E3FFFFF59
:1013C000FFFFFE00000000000000000000FFFFFF24
:1013D000FFFF000000000078FCFCFCFCFFFFFFFFAB
:1013E000FFFCFCFCFC787CFEFEFFFF7F3F3F3FFFE5
:1013F000FFFFFEFEFC000080C0E0F0F8FCFE7F3F37
:101400001F0F07017EFFFFFFFFFFFFFDFCFCFCFC41
:10141000FCFC787CFEFEFFFF7F3F3F3F7FFFFFFE2F
:10142000FEFC0000000000000C0C1E3FFFFFFFF35D
:10143000C00E3F7F7FFFFEFCFCFCFEFF7F7F3F0F67
:10144000FEFFFFFFFE00000000FEFFFFFFFE003F6B
:101450007F7F7F7F7C7C7C7CFFFFFFFFFF7C000029
:10146000000000000000007FFFFFFF7F00FEFFFF85
:10147000FFFF3F3F3F3F3F3F3F3F3F1E070F0F1FD5
:101480001F1E1E1E1E3EFCFCF8F0800E3F7F7FFFDD
:10149000FEFCFCFCFEFF7F7F3F0FF8FEFEFFFF3FE0
:1014A0001F1F1F1F3F7F7E7E38FFFFFFFFFF3E1E77
:1014B0001E1E3EFCFCF8F0800F3F7F7FFFFEFCFC11
:1014C000FCFEFF7F7F3F0F3C7E7E7F7F7F3F3FBFE5
:1014D000FFFFFFFEFE7C000000000000E0FCFFFFBD
:1014E000FFFF1F030000000070FCFFFFFF7F1F07CE
:1014F00000000000C0F8FCFEFE1F0F0F0F1FFEFED5
:10150000FCF8C081E7FFFFFF3F1E1E1E3FFFFFFFED
:10151000E7810F3F7F7FFFFEFCFCFCFEFF7F7F3FEC
:101520000FF0FCFEFEFF3F1F1F1F3FFFFEFEFCF003
:10153000030F1F1F3F3E3C3C3C7EFFFFFFFFFF1C95
:101540007E7EFEFCF8F8F8F8FCFFFF7F7F1F49184D
:10155000FEFFFFFFFFFE0000000000000000FCFE99
:10156000FEFFFF7F3F3F3F3F3F1E001EFFFFFFFF8D
:10157000FEF00000000000F0FEFFFFFFFF1E00FC79
:10158000FEFEFFFF7F3F3F3F3F3F1E0000FEFFFF8D
:10159000FFFFFE000000000000FFFFFFFFFFFF0055
:1015A00000000000000000FFFFFFFFFF3C3C3C3C50
:1015B0003C1800000000073FFFFFFFFFF080F0FF36
:1015C000FFFFFF3F07000000FFFFFFFFFF3C3C3C29
:1015D0003C3C18000000FFFFFFFFFFFF0000000081
:1015E00000000F3F7F7FFFFFFEFCFCFCFC7800004B
:1015F0000F3F7F7FFFFEFCFCFCFCFC78000000003E
:101600000001071F7FFFFFFF7F1F07010000000091
:10161000000F3F7F7FFFFEFCFCFCFCFC7800000F0E
:101620003F7F7FFFFFFEFCFCFCFC7880403E9F0775
:101630000303010002030100020301000203010091
:10164000E2F3F1F0F2F3F1F0F2F3E1E0C2030100B2
:10165000E2F3F1F0E203010002E3F1F0F2E3010052
:10166000E2F3F1F0F2F3F1F0F2F3F1F0F2E3010062
:10167000E2F3F1F0F2F3F1F0F2F3F1F0F2E3010052
:10168000E2F3F1F0F2E30100020301000203C1E022
:10169000E2F3F1F0F2F3F1F0F2E3010002030100F2
:1016A00002030100020301000203073F9E33990079
:1016B000000000000080808080000000000000002A
:1016C000FFFFFFFFFFFFC0C0E1FFFFFFFFFF0000C4
:1016D000FFFFFFFFFF00000000FFFFFFFFFF000014
:1016E00001030383E3FBFFFFFFFF7F1F07010000F0
:1016F00001030383E3FBFFFFFFFF7F1F07010000E0
:10170000FFFFFFFFFFFF0000000000000000FFFFE1
:10171000FFFFFFE7E3E3E3E3C30100000000000095
:101720000000808080800000000000339933990021
:101730000000E0388FE100E0CF38E08000000000DA
:10174000FFFFFFFFFFFF070707070703030000C0B6
:10175000DFDFDFDFBF78F0F0F8FF3FDFDFDF000023
:10176000E0F83EDFDFDFBF7F37D1D030F0E00000B0
:10177000C0D8DE3FFFFFFF3FD7D1D0B07020C0C040
:101780003FFFFFFF3FDFD8D030F0F0E000003FFF29
:10179000FFFFFFF9F1F1F1F1F0E00000000000803F
:1017A000E038CFE000E18F38E00000339933990052
:1017B00000003FE01FFFFEF9E7DFBC7BF6ECD8B08E
:1017C0006143C3830301000000000000000000FF2C
:1017D000FFC4C4FF7F3B0003E3FC7F3F313F7FFC3E
:1017E000E10300FFFF071F7EF8FFFF0003E0FC7F1F
:1017F0003F313F7FFCE30300FFFF071F7EF8FFFF41
:101800000001E1FC7F3F313F7FFCE301000000006D
:101810000101030303030383C34160B0D8ECF67BEB
:10182000BCDFE7F9FEFF1FE03F000033993399006A
:1018300000000001071C336FDFBFBF7F7EFDFBF799
:10184000F7EFEEDDDDDBBAB6B4AC0898F0000000CF
:101850000000000000000000000000000000000088
:101860000000000000000000000000000000000078
:101870000000000000000000000000000000000068
:101880000000000000000000000000000000F098D0
:1018900008ACB4B6BADBDDDDEEEFF7F7FBFD7E7F1B
:1018A000BFBFDF6F331C070100000033993399007D
:1018B0000000000000000000000001010302060615
:1018C00005050505050505050602030100000000E4
:1018D0000000F0F818F8F818F8F000F0F8181818E8
:1018E00000000000F8F85878F0C000F8F800000098
:1018F00000F8F800F8F81818F8F000F8F840E0B828
:1019000018003878C0C078380000000000000001DE
:101910000302060505050505050505060602030182
:10192000010000000000000000000033993399001E
:10193000000000A0080480E2B0E2800408A00000DB
:10194000F040F000F0505000F0000000F050700047
:101950000000030300000000030300030300000075
:10196000637330B0F3E303E3F33130F1E303637304
:1019700030B3F3E003F3F0B0B3B33003030000037C
:1019800003000000030300A00804F0F250F2A004DA
:1019900008A000007050D00010F01000F090F0008F
:1019A000F0D0700010F01000000000339973F9E0DF
:1019B000C0400080C2440189C0490184C240008007
:1019C000C1400180C1410180C1410180C14000800E
:1019D000C0400080C0400080C0400080C040008007
:1019E000CC4E0F8FCD4C0087CF4C0C8FC7400C8E48
:1019F000CF4F0D8CC04D0D8DCD4F0780C040008066
:101A0000C0400080C0400080C2440189C1490084B8
:101A1000C2400080C1410180C0410080C1400180BE
:101A2000C1400180C0410080C0C0E0F379080B00D4
:101A30000202020000090400000102020000052465
:101A400000100105240101010424020605240600FA
:101A5000010705810310004009040100020A00008B
:101A60000007050202400000070583024000000451
:101A700003090412010002EF0201404123368000F5
:101A8000010102030141726475696E6F204C4C4381
:101A90000041726475626F7900009E1411241FBEAC
:101AA000CFEFDAE0DEBFCDBF11E0A0E0B1E0E2EFC2
:101AB000F9E302C005900D92A632B107D9F726E0EE
:101AC000A6E2B1E001C01D92A43CB207E1F71DE01F
:101AD000CEE4DDE004C02197FE010E94F11CCD346C
:101AE000D107C9F70E94B3140C94F71C0C940000A2
:101AF0006F927F928F929F92AF92BF92CF92DF921E
:101B0000EF92FF920F931F93CF93DF93DC01FA01C3
:101B10001491319654913196C12FD0E0222309F1CE
:101B2000CC24C394D12C852F877011F4D12CC12CD7
:101B3000E52EE694E694E694EC0CFD2CF11CEC9E6C
:101B4000C001ED9E900DFC9E900D1124033011F408
:101B5000880F991F289F7001299FF00C1124EE0D0A
:101B6000FF1D7D01EC0EFD1E1E141F040CF031C183
:101B7000A038B1050CF02DC1CB01850F911D1816B1
:101B800019060CF026C1603471050CF022C13097A3
:101B900009F41FC1362F3770CB0177FD079623E07C
:101BA000959587952A95E1F7282F77FF04C0332371
:101BB00011F02FEF280F662777276A1B7B0BB7FDE5
:101BC00002C070E060E090E89A1B40E8E416F1047F
:101BD0000CF4912F961BE22E022E000CFF08DE2C37
:101BE000D0942F3F0CF0D12C41E0852F877009F461
:101BF00040E0B52EB694B694B6944B0DE40EF11CAD
:101C000089E0E816F10414F048E0421BB42EBD1838
:101C10002D0D40E8240370011124AE0DBF1DA60F49
:101C2000B71F1D9D600D711D1124AF01460F571F79
:101C3000C32E032E000CDD08033009F47EC00A3FDA
:101C400009F441C0023009F0C4C06FEF70E0032E08
:101C500002C0660F771F0A94E2F760957095972E81
:101C60008B2C820E281509F4B4C08D010C531D4F26
:101C7000F12CE12CE91608F054C0FA01EE0DFF1D1D
:101C8000E491F0E03F010C2C02C0660C771C0A9432
:101C9000E2F727FD05C0F80180818623862980832D
:101CA000332359F027304CF45801F0E8AF0EB11C43
:101CB000F5018081892187298083FFEFEF1AFF0AD0
:101CC0000F5F1F4FD7CFB20E2B1509F482C0BD0195
:101CD0006C537D4F10E000E0091748F5FA01E00F62
:101CE000F11FE491F0E04F010C2C02C0880C991C0C
:101CF0000A94E2F727FD04C0FB01808188298083D4
:101D0000332351F0273044F47B01F0E8EF0EF11C4F
:101D1000F7018081892980830F5F1F4F6F5F7F4F9D
:101D2000DBCF2F5F4C0F5D1FA058BF4F9BCF2F5FA6
:101D30004C0F5D1FA058BF4FC7CFE92EF12CFA0101
:101D4000E60FF71FAC53BD4F60E870E06E197F09D6
:101D5000CE19DF098E01000F111F41E050E07A011A
:101D6000032E01C0EE0C0A94EAF7592F4B2D892E51
:101D7000932ECF93DF93ED01EF96EF962296A590E9
:101D8000C590992059F0AE9C5001CE9C600127303F
:101D90002CF4F880D094FD20FB28F99222233AF00D
:101DA000FC90C094FC20FA28FD920C94D80E119659
:101DB0005A9529F74A9551F0582D23951124E00F93
:101DC000F11DA60FB11DC60FD11DD9CFDF91CF9147
:101DD0001124DF91CF911F910F91FF90EF90DF9031
:101DE000CF90BF90AF909F908F907F906F9008950D
:101DF000E4ECF2E0A0E0B8E000800EBC8111012C20
:101E00001197A0FDFDCF0192B9F70DB40895FC0123
:101E10008091C302882311F13FB7F89482E0809348
:101E2000E9002091F200822F90E01816190614F4B0
:101E300081E090E0882339F0289844E64093C2027C
:101E40004091F1004083222339F02091F2002111CA
:101E500003C02BE62093E8003FBF08958FEF9FEF6C
:101E600008952FB7F89483E08093E9009091E800FB
:101E7000892F807295FF04C09091F20080E4891B45
:101E80002FBF08958091BA0281110DC082E0809326
:101E9000B60284E08093B7021092B9021092B802A1
:101EA00081E08093BA0286EB92E00895CF93DF93AE
:101EB0001F92CDB7DEB76983DC01ED91FC91028002
:101EC000F381E02D41E050E0BE016F5F7F4F099547
:101ED0000F90DF91CF91089583E08093E900809186
:101EE000F200882319F08AE38093E80008950E94A5
:101EF000310F90E00895CF93DF931F92CDB7DEB7F7
:101F0000FC018485958597FD08C02FEF3FEF35874D
:101F100024870F90DF91CF910895CE0101960E9402
:101F2000070F019719F4898190E0F3CF8FEF9FEFAE
:101F3000F0CF0F931F93CF93DF931F92CDB7DEB7F0
:101F40008C01FC018485958597FF0BC0CE0101961D
:101F50000E94070F019771F4898190E0F80195873D
:101F60008487F801848595850F90DF91CF911F912B
:101F70000F9108958FEF9FEFF1CFFC018485958538
:101F800097FD0BC09FB7F89482E08093E9008091A1
:101F9000F2009FBF90E0019608959FB7F89482E009
:101FA0008093E9008091F2009FBF90E008954091F6
:101FB00060025091610220915E0230915F024217EF
:101FC0005307B4F49091E8009570E1F39091E80024
:101FD00092FD19C08093F10080916002909161029E
:101FE00001968F739927892B19F48EEF8093E8005F
:101FF00080916002909161020196909361028093BA
:10200000600281E0089580E00895DF92EF92FF92F0
:102010000F931F93CF93DF93D82E8A01EB017B019F
:10202000E40EF51ECE15DF0559F0D7FE12C0FE01F5
:1020300084910E94D70F21968111F4CF0FEF1FEFEB
:10204000C801DF91CF911F910F91FF90EF90DF902A
:1020500008958881EECF0F931F93CF93DF931F9244
:10206000CDB7DEB782E0898342E450E06DE27AE1E9
:1020700080E80E9405100E94420FDC0112960D912B
:102080001C910115110589F0D801ED91FC91028098
:10209000F381E02DBE016F5F7F4FC801099597FD69
:1020A00004C0F80100851185ECCF89810F90DF9184
:1020B000CF911F910F910895615030F02091F10060
:1020C000FC0120830196F8CF289884E68093C20211
:1020D0000895FC010E940011319728F068517C4F4F
:1020E0008F4F9F4FF9CFAB01FC010E940011641785
:1020F00075078E079F07C8F308958F929F92AF923E
:10210000BF92CF92DF92EF92FF920F931F93CF93E4
:10211000DF936C017B018A0180910C01882309F413
:102120005AC08091C302882309F455C0809165028A
:1021300080FF05C08091E00082608093E000E801AC
:10214000B12C8AEFA82E93E0892E2AE3922E2097B5
:1021500011F4BB20C9F10E94310F811108C0AA946B
:10216000AA20C9F181E090E00E946910F0CF8C179D
:102170001D0611F00CF08C2F9FB7F8948092E900A7
:102180002091E80025FD02C09FBFE1CF282F30E05D
:10219000C21BD30BF701815020F041914093F10015
:1021A000FACFE20EF31EBB2021F09092E800B12C92
:1021B000EBCF8091E80085FDE7CF9092E800BB244B
:1021C000B394209709F3F3CF5D9884E6809364027B
:1021D000101611063CF081E090E0F60193838283B3
:1021E00010E000E0C801DF91CF911F910F91FF90A7
:1021F000EF90DF90CF90BF90AF909F908F90089519
:10220000A8E2B1E02FB7F8947D918D919C9166B5CD
:102210002FBFA89B05C06F3F18F47F5F8F4F9F4F64
:1022200022E0660F771F881F991F2A95D1F708951E
:102230000F9303E00E94780D0F9108950F9302E031
:102240000E94780D0F91089590E00C9469108FB161
:102250008095807F669B88601C9B84600895909128
:102260004802982329F490914902982381E009F4C7
:1022700080E0089587FF0DC067FD36C0062E000C74
:10228000770B809147018617170609F07CF58FE0E0
:102290000895082E000C990B209146012817190665
:1022A00009F06CF467FD24C0062E000C770B8091BA
:1022B00047018617170609F0ECF481E1089567FDE0
:1022C0001BC030914701462F062E000C550B3417CA
:1022D0001506A1F09CF06203F00111248B5B9E4F68
:1022E000E80FF91F838108958AE008958DE008952D
:1022F0008CE008958EE008958BE0089580E10895C4
:102300001F920F920FB60F9211248F939F9380917B
:10231000E1009091E100937F9093E10083FF0FC073
:102320001092E90091E09093EB001092EC0092E3A0
:102330009093ED001092C30298E09093F00082FF1A
:1023400022C093E09093E9009091F200992319F054
:102350009AE39093E80090916402992341F0909160
:102360006402915090936402911101C05D9A909122
:10237000C202992341F09091C20291509093C202FF
:10238000911101C0289A84FF18C08091E2008E7ECE
:1023900081608093E2008091E1008F7E8093E10074
:1023A000809165028E7E8061809365029F918F91FE
:1023B0000F900FBE0F901F90189580FFF7CF809160
:1023C000E2008E7E80618093E2008091E1008E7E4B
:1023D0008093E100809165028E7E8160E5CF1F923F
:1023E0000F920FB60F921124CF92DF92EF92FF92CD
:1023F0000F931F932F933F934F935F936F937F930D
:102400008F939F93AF93BF93EF93FF93CF93DF93FC
:10241000CDB7DEB76C97DEBFCDBF1092E9008091DB
:10242000E80083FF25C068E0CE0145960E945C105D
:1024300082EF8093E8008D8987FF39C09091E80092
:1024400090FFFCCF982F907609F034C19E894F8978
:10245000588D2F89F88C911131C0803861F58091A9
:1024600063028093F1001092F1008EEF8093E800F8
:102470006C960FB6F894DEBF0FBECDBFDF91CF9143
:10248000FF91EF91BF91AF919F918F917F916F914C
:102490005F914F913F912F911F910F91FF90EF907E
:1024A000DF90CF900F900FBE0F901F9018959EEF6A
:1024B0009093E800C7CF1092F100D5CF913059F436
:1024C0008111D3CF4130510581F6809163028D7F18
:1024D00080936302CACF933049F48111C6CF413053
:1024E000510519F6809163028260F2CF953041F474
:1024F0008091E80080FFFCCF20682093E300B5CFF7
:10250000963009F0A9C00B8D1C8D22E01092E900D5
:102510001092610210926002F2122EC010925F02BD
:1025200010925E020E942B101F8299E09983FA821A
:1025300091E09E8390EA98879AEF998720916002B4
:1025400030916102275F3F4F3C832B838D83109234
:10255000E900109261021092600210935F020093F2
:102560005E0249E050E0BE016F5F7F4F80E00E9455
:1025700005100E942B1079CF10935F0200935E022A
:102580000E94420FDC0112960D911C91011511055C
:1025900009F451C1D801ED91FC910480F581E02D41
:1025A000BE016B5E7F4FC8010995009709F03EC1DF
:1025B000F80100851185EACFF3E0FF120EC08F8984
:1025C000882309F440C0823061F440E867E081E983
:1025D0009AE10E946B14811148CF81E28093EB0055
:1025E00047CF813029F440E86BE085E89AE1F1CFEC
:1025F000833099F70E94420FDC011296ED90FC9017
:102600008E010F5F1F4F6801E114F10479F0D701CB
:10261000ED91FC910680F781E02DB801C701099585
:10262000080F111DF701E084F184EECFD8011C9250
:10263000F60101900020E9F73197BF016C197D097F
:1026400040E0C601C6CF6FE67AE1FB01449150E05D
:1026500080E80E94051009CF973009F4BECF98306A
:1026600021F481E08093F10000CF993009F0FDCE94
:10267000837009F0B2CFEEE0F1E081E031E096E363
:102680002191222371F08093E9003093EB00DF0168
:1026900011972C912093EC009093ED008F5F873081
:1026A00079F78EE78093EA001092EA008F89809391
:1026B000C302DBCE8B8D9C8D1092E90010926102DB
:1026C0001092600290935F0280935E02898D811167
:1026D00092C08E899D89913A49F4813209F07DCF6B
:1026E00047E050E065E071E080E0B3CF913209F05F
:1026F00074CF833269F48F89988DB0E0A0E0809325
:10270000010190930201A0930301B0930401ADCEA7
:10271000803269F48091E80082FFFCCF67E085E0B9
:1027200091E00E945C108BEF8093E8009ECE823295
:1027300009F09BCE8F8980930C01EEEFFFE7859126
:1027400094918B3F9C4D51F1E0E0F8E080910501C0
:1027500090910601A0910701B0910801803B94403F
:10276000A105B105F1F480910C0180FD1AC0EE3F86
:102770008AE0F80789F587E797E79183808380915E
:1027800060008093620288E19BE00FB6F894A89500
:10279000809360000FBE9093600067CEEEEFFAE08A
:1027A000D5CF808191818737974709F05ECEA89574
:1027B00080916000886180936000809162028093C4
:1027C0006000EE3F2AE0F20789F08091FE0A9091C6
:1027D000FF0A9183808349CE808191818737980752
:1027E00051F29093FF0A8093FE0AC5CF1092FF0A20
:1027F0001092FE0A3ACE0E94420FDC0112960D9111
:102800001C910115110509F4E8CED801ED91FC9158
:102810000190F081E02DBE016B5E7F4FC8010995EC
:10282000811123CEF80100851185EBCF181619060A
:102830000CF41BCED2CEF1E0FF12BECE63E77AE1FC
:1028400004CF0F920FB68F939F93EF93FF938091D6
:1028500027018D5F8D3708F08D5780932701EEE2B9
:10286000F1E080818E4F808391819F4F918382819F
:102870008F4F828383818F4F8383E8E2F1E08081F1
:102880008F5F808381818F4F818382818F4F82838D
:1028900083818F4F83838FB18F6066991C9B8827BC
:1028A0008F3681F480912601981B963068F0E0E025
:1028B000F8E087E78083818388E180936000F0936C
:1028C0006000FFCF90932601FF91EF919F918F9130
:1028D0000FBE0F901895EF92FF920F931F93CF9317
:1028E000DF93F82E192FE62E042F81E0860F880F34
:1028F0000E94D70F83E00E94D70FCF2DD12FEC0E6F
:10290000FD2EF11CCE15DF05B9F007FF13C0FE0147
:1029100084910E94D70F182F80E00E94D70F812347
:1029200021968111EFCFDF91CF911F910F91FF90F1
:10293000EF9008958881EDCF81E0F5CFE6E6F2E0F3
:102940001382128288EE93E0A0E0B0E08483958346
:10295000A683B78388E191E0918380838FEF9FEF17
:10296000958784870895789483E084BD83E085BD4E
:1029700081E080936E00E1E8F0E083E08083E0E8AE
:1029800081E08083E1E983E08083E0E981E0808386
:10299000E1EC87E08083E3EC81E08083E0EC82E09F
:1029A0008083E2EC81E08083EAE787E080838068CF
:1029B00080831092C302109263021092650280918C
:1029C000D70081608093D70080EA8093D80089B5D2
:1029D000806189BD89B5826089BD09B400FEFDCFE3
:1029E00081E090E00E9469108091D8008F7C806126
:1029F0008093D8008091E000807F8093E0008091F8
:102A0000E1008E7E8093E1008DE08093E200559A94
:102A1000209A84E18093000181EC80937C0081EF17
:102A200085B987EE84B982E38BB982EF8AB9769A49
:102A30006E9880EF81BB10BA80E58CBD81E08DBDC2
:102A400085E00E9424115F9A85E00E9424115C9821
:102A5000E5EAF4E085918EBD00000DB407FEFDCFE0
:102A6000E23BC1F75C9A81E88093640081E0809347
:102A7000650080E00E94F80E0E94271187FF15C0B4
:102A80005C9885EA8EBD00000DB407FEFDCF5C9A10
:102A90002E982F982D988091640080628093640016
:102AA00081E083BF889513BEFCCF0E94271182FF6F
:102AB00037C02D980E94271184788438A1F42D9A6C
:102AC00088EC0E9424112F986FEF82E090E00E9422
:102AD000BF1C84EF91E00E9469102F9A0E94271179
:102AE00084788438D9F30E94271184718431A1F449
:102AF0002D9A88EC0E9424112E9860E082E090E0EC
:102B00000E94BF1C84EF91E00E9469102E9A0E94DF
:102B1000271184718431D9F388EC0E942411C5CF28
:102B20002D9A82E090E00E94B71C8823C1F13E9A62
:102B30003F9A81E090E00E94B71C182F147081FF2B
:102B40000AC011112E98C1EFDFEF0E94271186FFF6
:102B500029C02E9A2F9A82E30E9424110E942711E5
:102B60008111F9CF42E3442E41E0542E1CE05CE099
:102B7000D52E64E0662E712C73E0272E312CCC24E8
:102B8000C39480912C01882309F47BC010922C01FE
:102B900020E030E0232BA9F30E940000F0CF3E9804
:102BA0003F98C7CF112329F0C430D10511F42E9AD4
:102BB0002F9881E00E94F80E0C2F0770902ECE0106
:102BC000E3E095958795EA95E1F7AC015695542F8A
:102BD00044275795479570E060E08E3F2FEF9207AE
:102BE00091F1DA01AC53BD4F30E020E0FB01EE542F
:102BF000FB4F7F01FA01EC5BFC4F6F01F701E20F25
:102C0000F31FE491F0E03F01092C02C0660C771C31
:102C10000A94E2F78F3F980739F05496BC90549786
:102C2000B6285496BC925497992039F05601A20EBA
:102C3000B31EF50104890729048B2F5F3F4F1196BE
:102C400028353105D9F60196685A7F4F40585F4FB5
:102C5000603B710509F0C1CF80E00E94F80E8FE063
:102C60000E9424112196C931D10509F06ECF11239C
:102C700011F02F9A2D9880E991E00E9469102D9A09
:102C80006ACF90912E0180912D01F92FF81B8F2F83
:102C900020910001F21740F48F5F821708F078CF7F
:102CA000C3BE889513BE74CFC0922C0190932D01A2
:102CB000F201808191810196808391838091490204
:102CC000809348020E942711082F80934902809127
:102CD0005D02883060F5E82FF0E0EF58F94E0C9473
:102CE000F11C79169B169F169B16FE17801CA81CBC
:102CF000981C20E04BE256E170E060E090E080E05C
:102D00000E941E1184E00E942F11882341F010922E
:102D1000450182E38093430182E080935D0288E075
:102D20000E942F11882319F086E080935D0281E0D4
:102D30000E94F80E2DCF0C70D1F78F5FF6CFC091A7
:102D40004501D1E0DC0F20E04EE455E164E170E0A4
:102D500087E090E00E941E118D2F6AE00E94D11C36
:102D6000D92F282F4AE853E164E170E089E590E02B
:102D70000E941E112D2F4AE853E164E170E08AE6BB
:102D800090E00E941E11809143019FEF980F909355
:102D900043018111CCCFEC2FF0E0EE0FFF1FE65C7A
:102DA000FC4E25913491A9014F5F5F4FF901949139
:102DB000C92FC295CF70CF5FC09346019F709F5FB0
:102DC000909347016C2F70E0E8E4F1E0DF01D0E080
:102DD0001D92DF5FDC17E0F38F5FE60FF71F8917A7
:102DE000A8F3FA018491482F50E0E4E05595479507
:102DF000EA95E1F7D42F40933F018F708093400113
:102E0000109241011092420110924301F901329651
:102E1000E491AE2FB0E0F4E0B595A795FA95E1F70F
:102E2000A0933B01EF70E0933C01AB5BBE4FCE9FA4
:102E3000A00DB11D11241396CC9210923D01109259
:102E40003E0110924401D90114962D5F3F4FF901C4
:102E50002491E22FF0E004E0F595E7950A95E1F77B
:102E6000E09339012F7020933A01EB5BFE4FC29F34
:102E7000E00DF11D112422E0238323E0F22E9D01B9
:102E8000FD010491E02E2F5F3F4FEE20B1F0F901DC
:102E9000A490FA2DFF70BF2EEA2DF0E0689413F88D
:102EA000F595E7951694E1F7BC9EE00DF11D112410
:102EB000EB5BFE4FF382EA94E6CF202F30E02F5FEA
:102EC0003F4FA20FB31FF3940AE0F012D8CF109235
:102ED0003801109236011092370110925A02109266
:102EE0005B0204EF0603D001079FB00D1124A35825
:102EF000BF4FB0935302A09352027092550260925A
:102F00005402292F30E00203F001039FF00D112439
:102F1000FD96F0935702E0935602309259022092A8
:102F20005802CB3058F50AEF0603A001079F500D59
:102F30001124405C5F4F50934B0240934A029630FD
:102F4000E0F54AEF4203C001439F900D11248096A3
:102F500090934D0280934C0280914A0290914B02D3
:102F600090934F0280934E0280914C0290914D02BB
:102F7000909351028093500284E0D7CED73028F44A
:102F800070924B0260924A02DACF6650710946177E
:102F900057072CF0B0934B02A0934A02D0CF465073
:102FA00051090403B001059F700D11246C5F7F4F20
:102FB00070934B0260934A02C2CF833028F4309260
:102FC0004D0220924C02C8CF90E022503109821766
:102FD00093072CF0F0934D02E0934C02BDCF029783
:102FE00044EFBC0146039001479F300D11242D5F33
:102FF0003F4F30934D0220934C02AECFB0905A0217
:1030000080914A0290914B0220914C0230914D02E6
:10301000B11010C060914E0270914F024091500269
:10302000509151028617970709F0D2C0241735072F
:1030300009F0D7C040913601442329F047FF1DC154
:103040004F5F4093360140913701442329F047FFF9
:1030500016C14F5F40933701609138016623B9F084
:103060004091360150913701452B89F4409135014B
:1030700050914601459FA0011124709134014B5B92
:103080005E4F470F511DFA01638310923801509132
:103090003D015523C1F040914401515050933D01F1
:1030A00051110BC0423019F0443009F0EAC052E32C
:1030B00050933D014F5F40934401409144014330A0
:1030C00011F41092430140914101D0913F01C09110
:1030D0004001442309F402C19C01D19F200D311D00
:1030E000112447FDE6C0415040934101240F311D9A
:1030F0002832310584F42091540230915502821710
:1031000093074CF4019690934B0280934A0290935C
:103110004F0280934E022091430169E1223008F072
:1031200063E0F090440170E08091320190913301AE
:103130000E94DD1C892B31F452E05F1518F02C251C
:10314000209343018091410190914201892B082EE7
:10315000000C990B20913D01822B892B09F04BC06B
:103160006C2F8D2F0E943A11833009F0F4C086E055
:1031700080934301F110F3C080913B01D81303C148
:1031800080913C01C813FFC0C092440187E1809345
:103190003D0180914601C89FC00111248B5B9E4F69
:1031A000BC016D0F711DEB011B8203FF8CC288E017
:1031B0000E942F11882319F0BC24B0925A028091EA
:1031C0005B028F5F80935B02813208F06DC013C099
:1031D000861797070CF045C0019690934B02809399
:1031E0004A02241735070CF042C02F5F3F4F30933F
:1031F0004D0220934C020FEF20914701802F002EAB
:10320000000C990B281719060CF465C20102500135
:10321000112499249A94C0914C02D0914D02E090CF
:103220004A02F0904B0220914601892D092C000C96
:10323000990B281719060CF44CC2602F892D0E9497
:103240003A11BE016A0D7B1D282F48E851E1C701E4
:10325000E92DE102800D911D11240E941E1193940D
:10326000DACF681779070CF0BCCF0197B6CF4217B9
:1032700053070CF621503109BACF4150E2CE4150EC
:10328000E9CE433071F4809145018F5F8093450111
:10329000883251F484E68093430185E080935D0297
:1032A000AACF453009F009CF82E38093430182E041
:1032B000F5CF4F5F40934101240F311D47FD3A95F3
:1032C0002D3431050CF427CF209152023091530256
:1032D000281739070CF01FCF019715CF80914201B5
:1032E000882309F418CF9091470187FD20C08150B1
:1032F00080934201963008F40ECF492F4350550B6E
:10330000C41715060CF007CF80915802909159020E
:10331000281739070CF0FFCE2F5F3F4F30934D0237
:1033200020934C023093510220935002F4CE8F5FD1
:1033300080934201963008F4EECEC33008F4EBCE11
:103340008091560290915702821793070CF0E3CEBA
:1033500021503109E3CF80914301817009CF71E0A1
:10336000F71211C080913901D8130DC080913A0134
:10337000C81309C087E180933D01F0923E0182E0CD
:103380008093440112CF6C2F8D2F0E943A11A82EEA
:1033900085E0A8120BC093E09F1508F406CF84E0E7
:1033A0008093440187E180933D01FFCEEE24E394B6
:1033B000EC0E6E2D8D2F0E943A11F82EE2E0E817E8
:1033C00018F4F5E08F1303C023E0A2123AC0B11045
:1033D0003EC002FF14C136E0F3127DC0AA24AA94B5
:1033E000AD0E6E2D8A2D0E943A118111DECEF09223
:1033F00038018C2F90E0019620914601289FF00122
:10340000299FF00D1124EB5BFE4FED0FF11D138290
:10341000A0923401E0923501D09236016C2F8D2FAD
:103420000E943A11833009F4C0CE6C2F8A2D0E947D
:103430003A11843008F0B9CEA0923F01D0924101F8
:10344000B4CEE092400184EF80934201AECE8091F1
:103450005B028111BECF80914A0290914B0205FF21
:103460000EC02091540230915502821793070CF040
:103470009CCE019690934B0280934A0296CE06FF13
:103480000AC02091520230915302281739070CF0DC
:103490008CCE0197EFCF80914C0290914D0207FFA7
:1034A0000EC02091580230915902821793070CF0F8
:1034B0007CCE019690934D0280934C0276CE04FF11
:1034C00074CE2091560230915702281739070CF01C
:1034D0006CCE0197EFCF47E0F41235C0AA24A39435
:1034E000AD0E6E2D8A2D0E943A1181115ECEF092A2
:1034F00038018C2F90E0019620914601289FF00121
:10350000299FF00D1124EB5BFE4FED0FF11D13828F
:10351000A0923401E092350124EFF22EF0923601B0
:103520006C2F8D2F0E943A11833009F43ECE6C2F00
:103530008A2D0E943A11843008F037CEA0923F01C4
:10354000F092410132CE58E0F51228C0A1102DCEE4
:10355000EE24EA94EC0E6E2D8D2F0E943A118430E9
:1035600008F023CEF09238018C2F90E00196209144
:103570004601289FF001299FF00D1124EB5BFE4FBF
:10358000ED0FF11D1382D0933401C0933501D09219
:103590003701E0924001D092420107CE69E0F61275
:1035A00004CE92E0A92EAC0E6A2D8D2F0E943A1106
:1035B0008111FBCDF09238018C2F90E00196209183
:1035C0004601289FF001299FF00D1124EB5BFE4F6F
:1035D000ED0FF11D1382D0933401A092350184EFD9
:1035E000F82EF09237016C2F8D2F0E943A11833004
:1035F00009F4DBCDE0924001F0924201D6CD05FF07
:1036000009C099249A949D0E6C2F892D0E943A111D
:103610008430D8F006FD2EC007FF0BC073E0A71260
:1036200008C0C1506C2F8D2F0E943A11843008F4CD
:1036300042C004FFBACD83E08F1508F4B6CDE09206
:10364000400184EF809342013AC082E080934301BD
:103650006C2F8D2F0E943A11833049F46C2F892DE5
:103660000E943A11833019F486E0809343019092CE
:103670003F01E4CE992493949D0E6C2F892D0E94D6
:103680003A11843048F684E0809343016C2F8D2FEB
:103690000E943A11833049F46C2F892D0E943A110F
:1036A000833019F486E08093430190923F0184EFC8
:1036B000809341017ACDC0934001D092420186E0CF
:1036C0008093430172CDBB2009F495CD10925B022B
:1036D00092CD0F5F91CD00914401C0914001C19FF7
:1036E000E0011124E0903F01E19E700111248090DF
:1036F0004C0290904D02A0904A02B0904B028FEF86
:10370000800F823008F0E1C0E0913D01EE23A9F086
:10371000F0E0E059FE4EE491BE016E1B7109680DA8
:10372000791D20913E014EE051E1C7018A0D9B1D9C
:103730000E94181188E0809343010230A1F4809127
:103740003A01B401819F600D711D112480913901EE
:1037500020E04CED50E1F501819FE00DF11D1124B9
:10376000CF010E94181180914201BE01680F711DA6
:1037700087FD7A95680D791D809141019701280F89
:10378000311D87FD3A95C901209143014AEF5EE062
:103790008A0D9B1D0E94181180913601609137019E
:1037A000811102C0662329F190913501062E000C8B
:1037B000770B919F600D711D112420914C02309167
:1037C0004D02620F731F20913401082E000C990BDB
:1037D000219F800D911D1124E0914A02F0914B022E
:1037E0000AEF2091380148E851E18E0F9F1F0E9497
:1037F000780D80915A02882309F499CA80915B025E
:10380000811195CA80913201909133018F7099276F
:10381000892B31F480915C0292E0892780935C02CD
:10382000C0914C02D0914D02809158029091590262
:10383000C817D90754F460915C0270E022E048EBAD
:103840005EE08CE390E00E941811E0904A02F09054
:103850004B028091540290915502E816F90654F4F7
:1038600080915C0220E048EB5EE06CE170E090E06B
:103870000E94181180915202909153028E159F055B
:1038800074F480915C0221E048EB5EE06CE170E052
:10389000E8E7F0E0E81BF109CF010E9418118091E0
:1038A0005602909157028C179D070CF040CA8091E8
:1038B0005C0268E370E0681B710923E048EB5EE09E
:1038C0008CE390E00E94181132CA043009F04BCF0B
:1038D000E0913D01EC3019F439E030934301F0E020
:1038E000E059FE4EE491BE016E1B710961507109F1
:1038F000680D791D209143014AEF5EE0C70148CF72
:1039000020E046E65DE064E170E088E090E00E943F
:103910001E1180914301882321F08150809343013F
:1039200006CAF4EDF093430107E000935D02FFC97E
:1039300020E044E659E070E060E090E080E00E9422
:103940001E11809143018111E8CF10925D02EFC9F1
:1039500020E042E655E070E060E090E080E00E9408
:103960001E118CE00E942F118111EFCFE0C9F9994F
:10397000FECF92BD81BDF89A992780B50895262F74
:10398000F999FECF92BD81BDF89A019700B4021655
:1039900039F01FBA20BD0FB6F894FA9AF99A0FBE03
:1039A0000895991B79E004C0991F961708F0961B9B
:1039B000881F7A95C9F780950895AA1BBB1B51E112
:1039C00007C0AA1FBB1FA617B70710F0A61BB70B8F
:1039D000881F991F5A95A9F780959095BC01CD0134
:1039E0000895EE0FFF1F0590F491E02D0994F894CF
:0239F000FFCF07
:1039F20010FFFFFFFF00E100000000000000C18097
:103A02008100000000000000560F7D10770F6C0F40
:063A1200BD0F7B0F990FB0
:00000001FF
